PO0012005555565558556901  Name Value                                          hamza                     Address Value                   Address Two Value               Address Three Value             1056                               First Account Value     Second Account Value    788  10231035D                                         00120012330400151201111010000000000      2181056 0                           01200555556555855690     010hamza 6                             1 11111111                                     26201321   hamza.melki                                
PO005377271085093277   233HAMZA                                               HAMZA                     ARIANA                                                                                          1056                               111111111111111111111111                        0078810231026D                                         0012001233030015120231006                218                                105377271085093277        434      1                               07466238                                     26201321   hamza.melki.isetcom@gmail.com              
PO005377274424194616   282HAMZA                                               HAMZA                     ARIANA                                                                                          1056                               000000000000000000000000                        0078810231026                                          0012001233030015120231031                218                                105377274424194616        434      2                               07466488                                     201321222  hamza.melki.isetcom@gmail.com              
PO005377271055811526   133HAMZA MELKI                                         HAMZA MELKI               RUE CHEDLIKHASNADAR TUNIS                                                                       1056                               111111111111111111111111                        788  10231026D                                         00120012330300151202310050000000000      2181056 0                          105377271055811526        434      3                             0 07466238                                     26201321   hamza.melki.isetcom@gmail.com              
PO005377274442615279   182HAMZA                                               MMMMM                     RUE CHEDLIKHASNADAR TUNIS 33333                                                                 1056                               000000000000000000000000                        788  10231026D                                         00120012330300151202310130000000000      2181056 0                          205377274442615279        434      4                             0 079696356                                    253614825  hamza.melki@esprit.tn                      
PO005377271023068092   133AZIZ                                                AZIZ AND BROTHERES        RUE AZIZ HAJRI TUNIS                                                                            1056                               999999999999999999999999                        788  10231026D                                         00120012330300151202310130000000000      2181056 0                          205377271023068092        434      5                             0 07463258                                     25836914   hajri.aziz@aziz.tn                         
PO0012005555565558556901  Name Value                                          hamza                     Address Value                   Address Two Value               Address Three Value             1056                               First Account Value     Second Account Value    788  10231035D                                         00120012330400151201111010000000000      2181056 0                           01200555556555855690     010hamza 6                             1 11111111                                     26201321   hamza.melki                                
