PO005377271000773979   133ROYA ALSHANITI                                                                LIBYA                                                                                           1056                               5377271000773979                                840  02240225D                                         0012001240570015120240201                2181056 0                          105377271000773979        840      704                           0 00000000                                     21891821761attadhamen@tab.com                         
PO005377271000837196   133ALLA GHARGHOUM                                                                LIBYA                                                                                           1056                               5377271000837196                                840  02240225D                                         0012001240570015120240201                2181056 0                          105377271000837196        840      705                           0 00000000                                     21891366786attadhamen@tab.com                         
PO005377271000446345   133ALSHAREF ALI                                                                  LIBYA                                                                                           1056                               5377271000446345                                840  02240225D                                         0012001240570015120240201                2181056 0                          105377271000446345        840      706                           0 00000000                                     21891868493attadhamen@tab.com                         
PO005377271000102252   133MUAD ALALIM                                                                   LIBYA                                                                                           1056                               5377271000102252                                840  02240225D                                         0012001240570015120240201                2181056 0                          105377271000102252        840      707                           0 00000000                                     21892300022attadhamen@tab.com                         
PO005377271000086877   133DALAL ALQARWI                                                                 LIBYA                                                                                           1056                               5377271000086877                                840  02240225D                                         0012001240570015120240201                2181056 0                          105377271000086877        840      708                           0 00000000                                     21892485819attadhamen@tab.com                         
PO005377271000952367   133MUKHTAR ALSAGHEER                                                             LIBYA                                                                                           1056                               5377271000952367                                840  02240225D                                         0012001240570015120240201                2181056 0                          105377271000952367        840      709                           0 00000000                                     21892450221attadhamen@tab.com                         
PO005377271000484718   133MAJEED EISA                                                                   LIBYA                                                                                           1056                               5377271000484718                                840  02240225D                                         0012001240570015120240201                2181056 0                          105377271000484718        840      710                           0 00000000                                     21891877972attadhamen@tab.com                         
PO005377271000875295   133HAZIM ALMAJDOUB                                                               LIBYA                                                                                           1056                               5377271000875295                                840  02240225D                                         0012001240570015120240201                2181056 0                          105377271000875295        840      711                           0 00000000                                     21891506444attadhamen@tab.com                         
PO005377271000860636   133SANA AHMED                                                                    LIBYA                                                                                           1056                               5377271000860636                                840  02240225D                                         0012001240570015120240201                2181056 0                          105377271000860636        840      712                           0 00000000                                     21893096636attadhamen@tab.com                         
PO005377271000208026   133AHMED ABOUZRARAH                                                              LIBYA                                                                                           1056                               5377271000208026                                840  02240225D                                         0012001240570015120240201                2181056 0                          105377271000208026        840      713                           0 00000000                                     21891007678attadhamen@tab.com                         
PO005377271000827098   133HAMIDA HANISH                                                                 LIBYA                                                                                           1056                               5377271000827098                                840  02240225D                                         0012001240570015120240201                2181056 0                          105377271000827098        840      714                           0 00000000                                     21892587640attadhamen@tab.com                         
PO005377271000195884   133MOHAMMED ALI                                                                  LIBYA                                                                                           1056                               5377271000195884                                840  02240225D                                         0012001240570015120240201                2181056 0                          105377271000195884        840      715                           0 00000000                                     21891533273attadhamen@tab.com                         
PO005377271000599325   133WAFA ALMAJDOUB                                                                LIBYA                                                                                           1056                               5377271000599325                                840  02240225D                                         0012001240570015120240208                2181056 0                          105377271000599325        840      716                           0 00000000                                     21891540413attadhamen@tab.com                         
PO005377271000601147   133ZOHRA ABOFAIEB                                                                LIBYA                                                                                           1056                               5377271000601147                                840  02240225D                                         0012001240570015120240201                2181056 0                          105377271000601147        840      717                           0 00000000                                     21892455799attadhamen@tab.com                         
PO005377271000827536   133MOHAMMED ALSIHHAL                                                             LIBYA                                                                                           1056                               5377271000827536                                840  02240225D                                         0012001240570015120240201                2181056 0                          105377271000827536        840      718                           0 00000000                                     21894678697attadhamen@tab.com                         
PO005377271000062365   133MAYSOUN HAMAM                                                                 LIBYA                                                                                           1056                               5377271000062365                                840  02240225D                                         0012001240570015120240201                2181056 0                          105377271000062365        840      719                           0 00000000                                     21892066159attadhamen@tab.com                         
PO005377271000739996   133ABDUSSALAM ALSHIBANI                                                          LIBYA                                                                                           1056                               5377271000739996                                840  02240225D                                         0012001240570015120240201                2181056 0                          105377271000739996        840      720                           0 00000000                                     21893094889attadhamen@tab.com                         
PO005377271000136144   133ALLAFI HABLI                                                                  LIBYA                                                                                           1056                               5377271000136144                                840  02240225D                                         0012001240570015120240201                2181056 0                          105377271000136144        840      721                           0 00000000                                     21892124405attadhamen@tab.com                         
PO005377271000160839   133HASAN ASHOUR                                                                  LYBIE                                                                                           1056                               5377271000160839                                840  02240225D                                         0012001240570015120240201                2181056 0                          105377271000160839        840      722                           0 00000000                                     21894681274attadhamen@tab.com                         
PO005377271000657578   133AYAH ALMAREEDH                                                                LIBYA                                                                                           1056                               5377271000657578                                840  02240225D                                         0012001240570015120240201                2181056 0                          105377271000657578        840      723                           0 00000000                                     21893197243attadhamen@tab.com                         
PO005377271000248105   133KHALLEEFAH ALGAZZAWI                                                          LIBYA                                                                                           1056                               5377271000248105                                840  02240225D                                         0012001240570015120240201                2181056 0                          105377271000248105        840      724                           0 00000000                                     21894676148attadhamen@tab.com                         
PO005377271000334863   133MOHANED KHADEMALLA                                                            LIBYA                                                                                           1056                               5377271000334863                                840  02240225D                                         0012001240570015120240201                2181056 0                          105377271000334863        840      725                           0 00000000                                     218MOHANED attadhamen@tab.com                         
PO005377271000717026   133ABDULMUHAYMIN KIRFFR                                                          LIBYA                                                                                           1056                               5377271000717026                                840  02240225D                                         0012001240570015120240201                2181056 0                          105377271000717026        840      726                           0 00000000                                     21891220454attadhamen@tab.com                         
PO005377271000465618   133FATIMAH ALDAYLAWI                                                             LIBYA                                                                                           1056                               5377271000465618                                840  02240225D                                         0012001240570015120240201                2181056 0                          105377271000465618        840      727                           0 00000000                                     21892313898attadhamen@tab.com                         
PO005377271000648866   133ABDULMALIK BANOUR                                                             LIBYA                                                                                           1056                               5377271000648866                                840  02240225D                                         0012001240570015120240201                2181056 0                          105377271000648866        840      728                           0 00000000                                     21893198195attadhamen@tab.com                         
PO005377271000997438   133MAHMOUD ALSIHHAL                                                              LIBYA                                                                                           1056                               5377271000997438                                840  02240225D                                         0012001240570015120240201                2181056 0                          105377271000997438        840      729                           0 00000000                                     21894679215attadhamen@tab.com                         
PO005377271000456856   133MOHAMMED ALQAJJAMIYAH                                                         LIBYA                                                                                           1056                               5377271000456856                                840  02240225D                                         0012001240570015120240201                2181056 0                          105377271000456856        840      730                           0 00000000                                     21891080105attadhamen@tab.com                         
PO005377271000914748   133ASMAA ALKHATTALI                                                              LIBYA                                                                                           1056                               5377271000914748                                840  02240225D                                         0012001240570015120240201                2181056 0                          105377271000914748        840      731                           0 00000000                                     21892288186attadhamen@tab.com                         
PO005377271000326968   133HUSAYN ALKHATTALI                                                             LIBYA                                                                                           1056                               5377271000326968                                840  02240225D                                         0012001240570015120240201                2181056 0                          105377271000326968        840      732                           0 00000000                                     21894446251attadhamen@tab.com                         
PO005377271000919457   133HIMEEDAH MOHAMMED                                                             LIBYA                                                                                           1056                               5377271000919457                                840  02240225D                                         0012001240570015120240201                2181056 0                          105377271000919457        840      733                           0 00000000                                     21892562862attadhamen@tab.com                         
PO005377271000471806   133ABTIHAL BENTALEB                                                              LIBYA                                                                                           1056                               5377271000471806                                840  02240225D                                         0012001240570015120240201                2181056 0                          105377271000471806        840      734                           0 00000000                                     21891710166attadhamen@tab.com                         
PO005377271000166315   133NAEIMAH ALSHAMIS                                                              LIBYA                                                                                           1056                               5377271000166315                                840  02240225D                                         0012001240570015120240201                2181056 0                          105377271000166315        840      735                           0 00000000                                     21891791187attadhamen@tab.com                         
PO005377271000648171   133MOHANAD AMMAR                                                                 LIBYA                                                                                           1056                               5377271000648171                                840  02240225D                                         0012001240570015120240201                2181056 0                          105377271000648171        840      736                           0 00000000                                     21894425522attadhamen@tab.com                         
PO005377271000426867   133GHADA RHUMA                                                                   LIBYA                                                                                           1056                               5377271000426867                                840  02240225D                                         0012001240570015120240201                2181056 0                          105377271000426867        840      737                           0 00000000                                     21892745815attadhamen@tab.com                         
PO005377271000438250   133YOUSEF ELBAROUNI                                                              LIBYA                                                                                           1056                               5377271000438250                                840  02240225D                                         0012001240570015120240201                2181056 0                          105377271000438250        840      738                           0 00000000                                     21892278183attadhamen@tab.com                         
PO005377271000130030   133ALSADIQ ABURAQIBAH                                                            LIBYA                                                                                           1056                               5377271000130030                                840  02240225D                                         0012001240570015120240201                2181056 0                          105377271000130030        840      739                           0 00000000                                     21894664820attadhamen@tab.com                         
PO005377271000241787   133FARAH SARRAJ                                                                  LIBYA                                                                                           1056                               5377271000241787                                840  02240225D                                         0012001240570015120240202                2181056 0                          105377271000241787        840      740                           0 00000000                                     21891496247attadhamen@tab.com                         
PO005377271000423088   133ALI ALGHREIW                                                                  LIBYA                                                                                           1056                               5377271000423088                                840  02240225D                                         0012001240570015120240201                2181056 0                          105377271000423088        840      741                           0 00000000                                     21892500276attadhamen@tab.com                         
PO005377271000708090   133MUNAY ALQASIMI                                                                LIBYA                                                                                           1056                               5377271000708090                                840  02240225D                                         0012001240570015120240201                2181056 0                          105377271000708090        840      742                           0 00000000                                     21891110960attadhamen@tab.com                         
PO005377271000265240   133TAHA ASMAEIL                                                                  LIBYA                                                                                           1056                               5377271000265240                                840  02240225D                                         0012001240570015120240201                2181056 0                          105377271000265240        840      743                           0 00000000                                     21891776571attadhamen@tab.com                         
PO005377271000964917   133EMAD AHMEED                                                                   LIBYA                                                                                           1056                               5377271000964917                                840  02240225D                                         0012001240570015120240201                2181056 0                          105377271000964917        840      744                           0 00000000                                     21891371256attadhamen@tab.com                         
PO005377271000534975   133MANSOUR TAWERGHI                                                              LIBYA                                                                                           1056                               5377271000534975                                840  02240225D                                         0012001240570015120240201                2181056 0                          105377271000534975        840      745                           0 00000000                                     21892331250attadhamen@tab.com                         
PO005377271000531229   133DIAEDIN ALGHREIW                                                              LIBYA                                                                                           1056                               5377271000531229                                840  02240225D                                         0012001240570015120240201                2181056 0                          105377271000531229        840      746                           0 00000000                                     21894417744attadhamen@tab.com                         
PO005377271000558842   133ABDALMALEK ELGREW                                                             LIBYA                                                                                           1056                               5377271000558842                                840  02240225D                                         0012001240570015120240201                2181056 0                          105377271000558842        840      747                           0 00000000                                     21893096087attadhamen@tab.com                         
PO005377271000073099   133ALI SHTEWI                                                                    LIBYA                                                                                           1056                               5377271000073099                                840  02240225D                                         0012001240570015120240201                2181056 0                          105377271000073099        840      748                           0 00000000                                     21892528922attadhamen@tab.com                         
PO005377271000984626   133ESAM ALTABEEB                                                                 LIBYA                                                                                           1056                               5377271000984626                                840  02240225D                                         0012001240570015120240201                2181056 0                          105377271000984626        840      749                           0 00000000                                     21891373624attadhamen@tab.com                         
PO005377271000436486   133OMAR ZORGANI                                                                  LIBYA                                                                                           1056                               5377271000436486                                840  02240225D                                         0012001240570015120240201                2181056 0                          105377271000436486        840      750                           0 00000000                                     21891010538attadhamen@tab.com                         
PO005377271000900408   133ADREES ALIALMAYDANI                                                           LIBYA                                                                                           1056                               5377271000900408                                840  02240225D                                         0012001240570015120240201                2181056 0                          105377271000900408        840      751                           0 00000000                                     21891852703attadhamen@tab.com                         
PO005377271000025008   133RUDAINA ALISWESI                                                              LIBYA                                                                                           1056                               5377271000025008                                840  02240225D                                         0012001240570015120240201                2181056 0                          105377271000025008        840      752                           0 00000000                                     21894253218attadhamen@tab.com                         
PO005377271000687971   133KHALIL SHAHATA                                                                LYBIE                                                                                           1056                               5377271000687971                                840  02240225D                                         00120012405700151202402010000000000      2181056 0                          105377271000687971        840      753                           0 00000000                                     21891087087attadhamen@tab.com                         
PO005377271000018797   133MOHAMMED ABRAHEEM                                                             LIBYA                                                                                           1056                               5377271000018797                                840  02240225D                                         00120012405700151202402010000000000      2181056 0                          105377271000018797        840      754                           0 00000000                                     21891567676attadhamen@tab.com                         
PO005377274400188970   182KHOLUD ETEIR                                                                  LIBYA                                                                                           1056                               5377274400188970                                840  02240225D                                         00120012405700151202402010000000000      2181056 0                          105377274400188970        840      755                           0 00000000                                     21891200699attadhamen@tab.com                         
PO005377271000950676   133THURYA ABULQASSIM                                                             LIBYA                                                                                           1056                               5377271000950676                                840  02240225D                                         00120012405700151202402010000000000      2181056 0                          105377271000950676        840      756                           0 00000000                                     21891371183attadhamen@tab.com                         
PO005377271000240805   133SANA ALHAJAJI                                                                 LIBYA                                                                                           1056                               5377271000240805                                840  02240225D                                         00120012405700151202402010000000000      2181056 0                          105377271000240805        840      757                           0 00000000                                     21892309112attadhamen@tab.com                         
PO005377271000718651   133RAWIA ELJAHLI                                                                 LIBYA                                                                                           1056                               5377271000718651                                840  02240225D                                         00120012405700151202402010000000000      2181056 0                          105377271000718651        840      758                           0 00000000                                     21892127369attadhamen@tab.com                         
PO005377271000222225   133ALI MESMARI                                                                   LIBYA                                                                                           1056                               5377271000222225                                840  02240225D                                         00120012405700151202402010000000000      2181056 0                          105377271000222225        840      759                           0 00000000                                     21891599020attadhamen@tab.com                         
PO005377271000781212   133MOHAMED ALBORKI                                                               LIBYA                                                                                           1056                               5377271000781212                                840  02240225D                                         00120012405700151202402010000000000      2181056 0                          105377271000781212        840      760                           0 00000000                                     21892360636attadhamen@tab.com                         
PO005377271000324468   133NOAMAN ATWIR                                                                  LIBYA                                                                                           1056                               5377271000324468                                840  02240225D                                         00120012405700151202402010000000000      2181056 0                          105377271000324468        840      761                           0 00000000                                     21800000000attadhamen@tab.com                         
PO005377271000465873   133FARAJ ALASWAD                                                                 LIBYA                                                                                           1056                               5377271000465873                                840  02240225D                                         00120012405700151202402010000000000      2181056 0                          105377271000465873        840      762                           0 00000000                                     21891210605attadhamen@tab.com                         
PO005377271000911439   133ELNASER IBRAHIM                                                               LIBYA                                                                                           1056                               5377271000911439                                840  02240225D                                         00120012405700151202402010000000000      2181056 0                          105377271000911439        840      763                           0 00000000                                     21891567676attadhamen@tab.com                         
PO005377271000844507   133AHMED AQEEL                                                                   LIBYA                                                                                           1056                               5377271000844507                                840  02240225D                                         00120012405700151202402010000000000      2181056 0                          105377271000844507        840      764                           0 00000000                                     21891016261attadhamen@tab.com                         
PO005377271000075516   133FOUAD ALMAATI                                                                 LIBYA                                                                                           1056                               5377271000075516                                840  02240225D                                         0012001240570015120240201                2181056 0                          105377271000075516        840      765                           0 00000000                                     21891701461attadhamen@tab.com                         
PO005377271000801432   133WALED ALHESHI                                                                 LIBYA                                                                                           1056                               5377271000801432                                840  02240225D                                         0012001240570015120240201                2181056 0                          105377271000801432        840      766                           0 00000000                                     21894676262attadhamen@tab.com                         
PO005377271000322207   133LAYLAY ABOUTHAHEER                                                            LIBYA                                                                                           1056                               5377271000322207                                840  02240225D                                         0012001240570015120240201                2181056 0                          105377271000322207        840      767                           0 00000000                                     21891218258attadhamen@tab.com                         
PO005377271000165200   133MARUWAN ALTAWIRGHI                                                            LIBYA                                                                                           1056                               5377271000165200                                840  02240225D                                         0012001240570015120240201                2181056 0                          105377271000165200        840      768                           0 00000000                                     21892434199attadhamen@tab.com                         
PO005377271000198797   133HADHUM ZWILIMA                                                                LIBYA                                                                                           1056                               5377271000198797                                840  02240225D                                         0012001240570015120240201                2181056 0                          105377271000198797        840      769                           0 00000000                                     21894680741attadhamen@tab.com                         
PO005377271000351339   133MOHAMMED FARHAT                                                               LIBYA                                                                                           1056                               5377271000351339                                840  02240225D                                         0012001240570015120240201                2181056 0                          105377271000351339        840      770                           0 00000000                                     21891793973attadhamen@tab.com                         
PO005377271000750555   133AHMED RAHAL                                                                   LIBYA                                                                                           1056                               5377271000750555                                840  02240225D                                         0012001240570015120240201                2181056 0                          105377271000750555        840      771                           0 00000000                                     21892737094attadhamen@tab.com                         
PO005377271000894197   133SUAD ALLAFI                                                                   LIBYA                                                                                           1056                               5377271000894197                                840  02240225D                                         0012001240570015120240201                2181056 0                          105377271000894197        840      772                           0 00000000                                     21892847368attadhamen@tab.com                         
PO005377271000157835   133LUBNAH ALAHJAL                                                                LIBYA                                                                                           1056                               5377271000157835                                840  02240225D                                         0012001240570015120240201                2181056 0                          105377271000157835        840      773                           0 00000000                                     21891402663attadhamen@tab.com                         
PO005377271000533886   133KHAWLAH AHMED                                                                 LIBYA                                                                                           1056                               5377271000533886                                840  02240225D                                         0012001240570015120240201                2181056 0                          105377271000533886        840      774                           0 00000000                                     21894557145attadhamen@tab.com                         
PO005377271000017518   133ABDULRAHMAN AHMED                                                             LIBYA                                                                                           1056                               5377271000017518                                840  02240225D                                         0012001240570015120240201                2181056 0                          105377271000017518        840      775                           0 00000000                                     21892117591attadhamen@tab.com                         
PO005377271000926742   133NAJIMY ALMAANI                                                                LIBYA                                                                                           1056                               5377271000926742                                840  02240225D                                         0012001240570015120240201                2181056 0                          105377271000926742        840      776                           0 00000000                                     21894681356attadhamen@tab.com                         
