000000001FH1CF    202310311551PRO260  2310312023103115514974000023103120231031155149740000                          100                                                                                                                                                                                                                                                                                                                                                                                                                                                                                                                                                            Z
000000002BH0151                                                                                                                                                                                                                                                                                                                                                                                                                                                                                                                                                                                                                                                                    Z
03460000000015377271085093277   000 330015                 000000000800000000000800000000000800000000000800000000000800000000000800            1026                                                                                                                                                                                                       008800100000000008000000000008000000000008000000000008000000000000000000ATM             0042            000000000000000000000800000000000800000000000800000000000800000000000800    00000000080000000000050000010   POS             00280010NN0000        00000010040010111111111111111111111                            Z
03460000000025377274424194616   000 820015                 000000000800000000000800000000000800000000000800000000000800000000000800            1026                                                                                                                                                                                                       008800100000000008000000000008000000000008000000000008000000000000000000ATM             0042            000000000000000000000800000000000800000000000800000000000800000000000800    00000000080000000000050000010   POS             00280010NN0000        00000010040010100000000000000000001                            Z
03460000000035377271055811526   000 330015                 000000000800000000000800000000000800000000000800000000000800000000000800            1026                                                                                                                                                                                                       008800100000000008000000000008000000000008000000000008000000000000000000ATM             0042            000000000000000000000800000000000800000000000800000000000800000000000800    00000000080000000000050000010   POS             00280010NN0000        00000010040010111111111111111111111                            Z
03460000000045377274442615279   000 820015                 000000000800000000000800000000000800000000000800000000000800000000000800            1026                                                                                                                                                                                                       008800100000000008000000000008000000000008000000000008000000000000000000ATM             0042            000000000000000000000800000000000800000000000800000000000800000000000800    00000000080000000000050000010   POS             00280010NN0000        00000010040010100000000000000000001                            Z
03460000000055377271023068092   000 330015                 000000000800000000000800000000000800000000000800000000000800000000000800            1026                                                                                                                                                                                                       008800100000000008000000000008000000000008000000000008000000000000000000ATM             0042            000000000000000000000800000000000800000000000800000000000800000000000800    00000000080000000000050000010   POS             00280010NN0000        00000010040010199999999999999999991                            Z
000000008BT000000000000000000000000005                                                                                                                                                                                                                                                                                                                                                                                                                                                                                                                                                                                                                                             Z
000000009FT0000000050                                                                                                                                                                                                                                                                                                                                                                                                                                                                                                                                                                                                                                                              Z
