000000001FH1CF    202402070948PRO260  2402072024020709480164000024020720240207094801640000                          100                                                                                                                                                                                                                                                                                                                                                                                                                                                                                                                                                            Z
000000002BH0151                                                                                                                                                                                                                                                                                                                                                                                                                                                                                                                                                                                                                                                                    Z
03460000000015377274400941170   000 820151C                000000005000000000005000000000005000000000005000000000005000000000005000            2502                                                                                                                                                                                                       008800250000000050000000000050000000000050000000000050000000000000000000ATM             01400000000000000000000000050000000050000000000050000000000050000000000050000000000050000025000000005000000000005000        POS             00280010NN0000        00000100400101                   1CHECK ACCT                   Z
03460000000025377271000402702   000 330151C                000000003000000000003000000000003000000000003000000000003000000000003000            2502                                                                                                                                                                                                       008800250000000030000000000030000000000030000000000030000000000000000000ATM             01400000000000000000000000030000000030000000000030000000000030000000000030000000000030000025000000003000000000003000        POS             00280010NN0000        00000100400101                   1CHECK ACCT                   Z
000000005BT000000000000000000000000002                                                                                                                                                                                                                                                                                                                                                                                                                                                                                                                                                                                                                                             Z
000000006FT0000000020                                                                                                                                                                                                                                                                                                                                                                                                                                                                                                                                                                                                                                                              Z
