000000001FH1CF0151202402071710PRO260  2402072024020717102837000024020720240207171028370000                          100                                                                                                                                                                                                                                                                                                                                                                                                                                                                                                                                                            Z
000000002BH0151                                                                                                                                                                                                                                                                                                                                                                                                                                                                                                                                                                                                                                                                    Z
03460000000035377271000015579   000 330151C                000000003000000000003000000000003000000000003000000000003000000000003000            2502                                                                                                                                                                                                       008800250000000030000000000030000000000030000000000030000000000000000000ATM             01400000000000000000000000030000000030000000000030000000000030000000000030000000000030000025000000003000000000003000        POS             00280010NN0000        000001004001015377271000015579   1CHECK ACCT                   Z
000000004BT000000000000000000000000001                                                                                                                                                                                                                                                                                                                                                                                                                                                                                                                                                                                                                                             Z
000000005FT0000000010                                                                                                                                                                                                                                                                                                                                                                                                                                                                                                                                                                                                                                                              Z
