000000001FH1CF    202402061806PRO260  2402062024020618061591000024020620240206180615910000                          100                                                                                                                                                                                                                                                                                                                                                                                                                                                                                                                                                            Z
000000002BH0151                                                                                                                                                                                                                                                                                                                                                                                                                                                                                                                                                                                                                                                                    Z
0346000000001537727440068518    000 8201511                000000005000000000005000000000005000000000005000000000005000000000005000            0225                                                                                                                                                                                                       008800000000000050000000000050000000000050000000000050000000000050      ATM             0140000000000000000000000000000000005000000000005000000000005000000000005000000000005000    000000005000000000005000        POS             00280010NN0000        00000100400101                   1CHECK ACCT                   Z
03460000000025377274400072471   000 8201511                000000005000000000005000000000005000000000005000000000005000000000005000            0225                                                                                                                                                                                                       008800000000000050000000000050000000000050000000000050000000000050      ATM             0140000000000000000000000000000000005000000000005000000000005000000000005000000000005000    000000005000000000005000        POS             00280010NN0000        00000100400101                   1CHECK ACCT                   Z
03460000000035377274400543596   000 8201511                000000005000000000005000000000005000000000005000000000005000000000005000            0225                                                                                                                                                                                                       008800000000000050000000000050000000000050000000000050000000000050      ATM             0140000000000000000000000000000000005000000000005000000000005000000000005000000000005000    000000005000000000005000        POS             00280010NN0000        00000100400101                   1CHECK ACCT                   Z
03460000000045377274400862202   000 8201511                000000005000000000005000000000005000000000005000000000005000000000005000            0225                                                                                                                                                                                                       008800000000000050000000000050000000000050000000000050000000000050      ATM             0140000000000000000000000000000000005000000000005000000000005000000000005000000000005000    000000005000000000005000        POS             00280010NN0000        00000100400101                   1CHECK ACCT                   Z
03460000000055377274400843624   000 8201511                000000005000000000005000000000005000000000005000000000005000000000005000            0225                                                                                                                                                                                                       008800000000000050000000000050000000000050000000000050000000000050      ATM             0140000000000000000000000000000000005000000000005000000000005000000000005000000000005000    000000005000000000005000        POS             00280010NN0000        00000100400101                   1CHECK ACCT                   Z
03460000000065377274400941170   000 8201511                000000005000000000005000000000005000000000005000000000005000000000005000            0225                                                                                                                                                                                                       008800000000000050000000000050000000000050000000000050000000000050      ATM             0140000000000000000000000000000000005000000000005000000000005000000000005000000000005000    000000005000000000005000        POS             00280010NN0000        00000100400101                   1CHECK ACCT                   Z
03460000000075377271000402702   000 3301511                000000005000000000005000000000005000000000005000000000005000000000005000            0225                                                                                                                                                                                                       008800000000000050000000000050000000000050000000000050000000000050      ATM             0140000000000000000000000000000000005000000000005000000000005000000000005000000000005000    000000005000000000005000        POS             00280010NN0000        00000100400101                   1CHECK ACCT                   Z
03460000000085377271000089509   000 3301511                000000005000000000005000000000005000000000005000000000005000000000005000            0225                                                                                                                                                                                                       008800000000000050000000000050000000000050000000000050000000000050      ATM             0140000000000000000000000000000000005000000000005000000000005000000000005000000000005000    000000005000000000005000        POS             00280010NN0000        00000100400101                   1CHECK ACCT                   Z
03460000000095377271000600503   000 3301511                000000005000000000005000000000005000000000005000000000005000000000005000            0225                                                                                                                                                                                                       008800000000000050000000000050000000000050000000000050000000000050      ATM             0140000000000000000000000000000000005000000000005000000000005000000000005000000000005000    000000005000000000005000        POS             00280010NN0000        00000100400101                   1CHECK ACCT                   Z
03460000000105377271000379272   000 3301511                000000005000000000005000000000005000000000005000000000005000000000005000            0225                                                                                                                                                                                                       008800000000000050000000000050000000000050000000000050000000000050      ATM             0140000000000000000000000000000000005000000000005000000000005000000000005000000000005000    000000005000000000005000        POS             00280010NN0000        00000100400101                   1CHECK ACCT                   Z
03460000000115377271000389057   000 3301511                000000005000000000005000000000005000000000005000000000005000000000005000            0225                                                                                                                                                                                                       008800000000000050000000000050000000000050000000000050000000000050      ATM             0140000000000000000000000000000000005000000000005000000000005000000000005000000000005000    000000005000000000005000        POS             00280010NN0000        00000100400101                   1CHECK ACCT                   Z
03460000000125377271000698499   000 3301511                000000005000000000005000000000005000000000005000000000005000000000005000            0225                                                                                                                                                                                                       008800000000000050000000000050000000000050000000000050000000000050      ATM             0140000000000000000000000000000000005000000000005000000000005000000000005000000000005000    000000005000000000005000        POS             00280010NN0000        00000100400101                   1CHECK ACCT                   Z
03460000000135377271000077553   000 3301511                000000005000000000005000000000005000000000005000000000005000000000005000            0225                                                                                                                                                                                                       008800000000000050000000000050000000000050000000000050000000000050      ATM             0140000000000000000000000000000000005000000000005000000000005000000000005000000000005000    000000005000000000005000        POS             00280010NN0000        00000100400101                   1CHECK ACCT                   Z
03460000000145377271000211285   000 3301511                000000005000000000005000000000005000000000005000000000005000000000005000            0225                                                                                                                                                                                                       008800000000000050000000000050000000000050000000000050000000000050      ATM             0140000000000000000000000000000000005000000000005000000000005000000000005000000000005000    000000005000000000005000        POS             00280010NN0000        00000100400101                   1CHECK ACCT                   Z
03460000000155377271000964909   000 3301511                000000005000000000005000000000005000000000005000000000005000000000005000            0225                                                                                                                                                                                                       008800000000000050000000000050000000000050000000000050000000000050      ATM             0140000000000000000000000000000000005000000000005000000000005000000000005000000000005000    000000005000000000005000        POS             00280010NN0000        00000100400101                   1CHECK ACCT                   Z
03460000000165377271000878323   000 3301511                000000005000000000005000000000005000000000005000000000005000000000005000            0225                                                                                                                                                                                                       008800000000000050000000000050000000000050000000000050000000000050      ATM             0140000000000000000000000000000000005000000000005000000000005000000000005000000000005000    000000005000000000005000        POS             00280010NN0000        00000100400101                   1CHECK ACCT                   Z
03460000000175377271000607177   000 3301511                000000005000000000005000000000005000000000005000000000005000000000005000            0225                                                                                                                                                                                                       008800000000000050000000000050000000000050000000000050000000000050      ATM             0140000000000000000000000000000000005000000000005000000000005000000000005000000000005000    000000005000000000005000        POS             00280010NN0000        00000100400101                   1CHECK ACCT                   Z
03460000000185377271000315532   000 3301511                000000005000000000005000000000005000000000005000000000005000000000005000            0225                                                                                                                                                                                                       008800000000000050000000000050000000000050000000000050000000000050      ATM             0140000000000000000000000000000000005000000000005000000000005000000000005000000000005000    000000005000000000005000        POS             00280010NN0000        00000100400101                   1CHECK ACCT                   Z
03460000000195377271000996349   000 3301511                000000005000000000005000000000005000000000005000000000005000000000005000            0225                                                                                                                                                                                                       008800000000000050000000000050000000000050000000000050000000000050      ATM             0140000000000000000000000000000000005000000000005000000000005000000000005000000000005000    000000005000000000005000        POS             00280010NN0000        00000100400101                   1CHECK ACCT                   Z
03460000000205377271000435264   000 3301511                000000005000000000005000000000005000000000005000000000005000000000005000            0225                                                                                                                                                                                                       008800000000000050000000000050000000000050000000000050000000000050      ATM             0140000000000000000000000000000000005000000000005000000000005000000000005000000000005000    000000005000000000005000        POS             00280010NN0000        00000100400101                   1CHECK ACCT                   Z
03460000000215377271000718370   000 3301511                000000005000000000005000000000005000000000005000000000005000000000005000            0225                                                                                                                                                                                                       008800000000000050000000000050000000000050000000000050000000000050      ATM             0140000000000000000000000000000000005000000000005000000000005000000000005000000000005000    000000005000000000005000        POS             00280010NN0000        00000100400101                   1CHECK ACCT                   Z
03460000000225377271000145491   000 3301511                000000005000000000005000000000005000000000005000000000005000000000005000            0225                                                                                                                                                                                                       008800000000000050000000000050000000000050000000000050000000000050      ATM             0140000000000000000000000000000000005000000000005000000000005000000000005000000000005000    000000005000000000005000        POS             00280010NN0000        00000100400101                   1CHECK ACCT                   Z
03460000000235377271000541061   000 3301511                000000005000000000005000000000005000000000005000000000005000000000005000            0225                                                                                                                                                                                                       008800000000000050000000000050000000000050000000000050000000000050      ATM             0140000000000000000000000000000000005000000000005000000000005000000000005000000000005000    000000005000000000005000        POS             00280010NN0000        00000100400101                   1CHECK ACCT                   Z
03460000000245377271000322454   000 3301511                000000005000000000005000000000005000000000005000000000005000000000005000            0225                                                                                                                                                                                                       008800000000000050000000000050000000000050000000000050000000000050      ATM             0140000000000000000000000000000000005000000000005000000000005000000000005000000000005000    000000005000000000005000        POS             00280010NN0000        00000100400101                   1CHECK ACCT                   Z
03460000000255377271000323007   000 3301511                000000005000000000005000000000005000000000005000000000005000000000005000            0225                                                                                                                                                                                                       008800000000000050000000000050000000000050000000000050000000000050      ATM             0140000000000000000000000000000000005000000000005000000000005000000000005000000000005000    000000005000000000005000        POS             00280010NN0000        00000100400101                   1CHECK ACCT                   Z
03460000000265377271000538984   000 3301511                000000005000000000005000000000005000000000005000000000005000000000005000            0225                                                                                                                                                                                                       008800000000000050000000000050000000000050000000000050000000000050      ATM             0140000000000000000000000000000000005000000000005000000000005000000000005000000000005000    000000005000000000005000        POS             00280010NN0000        00000100400101                   1CHECK ACCT                   Z
03460000000275377271000057357   000 3301511                000000005000000000005000000000005000000000005000000000005000000000005000            0225                                                                                                                                                                                                       008800000000000050000000000050000000000050000000000050000000000050      ATM             0140000000000000000000000000000000005000000000005000000000005000000000005000000000005000    000000005000000000005000        POS             00280010NN0000        00000100400101                   1CHECK ACCT                   Z
03460000000285377271000531930   000 3301511                000000005000000000005000000000005000000000005000000000005000000000005000            0225                                                                                                                                                                                                       008800000000000050000000000050000000000050000000000050000000000050      ATM             0140000000000000000000000000000000005000000000005000000000005000000000005000000000005000    000000005000000000005000        POS             00280010NN0000        00000100400101                   1CHECK ACCT                   Z
03460000000295377271000355652   000 3301511                000000005000000000005000000000005000000000005000000000005000000000005000            0225                                                                                                                                                                                                       008800000000000050000000000050000000000050000000000050000000000050      ATM             0140000000000000000000000000000000005000000000005000000000005000000000005000000000005000    000000005000000000005000        POS             00280010NN0000        00000100400101                   1CHECK ACCT                   Z
03460000000305377271000194242   000 3301511                000000005000000000005000000000005000000000005000000000005000000000005000            0225                                                                                                                                                                                                       008800000000000050000000000050000000000050000000000050000000000050      ATM             0140000000000000000000000000000000005000000000005000000000005000000000005000000000005000    000000005000000000005000        POS             00280010NN0000        00000100400101                   1CHECK ACCT                   Z
03460000000315377271000965823   000 3301511                000000005000000000005000000000005000000000005000000000005000000000005000            0225                                                                                                                                                                                                       008800000000000050000000000050000000000050000000000050000000000050      ATM             0140000000000000000000000000000000005000000000005000000000005000000000005000000000005000    000000005000000000005000        POS             00280010NN0000        00000100400101                   1CHECK ACCT                   Z
03460000000325377271000489931   000 3301511                000000005000000000005000000000005000000000005000000000005000000000005000            0225                                                                                                                                                                                                       008800000000000050000000000050000000000050000000000050000000000050      ATM             0140000000000000000000000000000000005000000000005000000000005000000000005000000000005000    000000005000000000005000        POS             00280010NN0000        00000100400101                   1CHECK ACCT                   Z
03460000000335377271000481615   000 3301511                000000005000000000005000000000005000000000005000000000005000000000005000            0225                                                                                                                                                                                                       008800000000000050000000000050000000000050000000000050000000000050      ATM             0140000000000000000000000000000000005000000000005000000000005000000000005000000000005000    000000005000000000005000        POS             00280010NN0000        00000100400101                   1CHECK ACCT                   Z
03460000000345377271000777053   000 3301511                000000005000000000005000000000005000000000005000000000005000000000005000            0225                                                                                                                                                                                                       008800000000000050000000000050000000000050000000000050000000000050      ATM             0140000000000000000000000000000000005000000000005000000000005000000000005000000000005000    000000005000000000005000        POS             00280010NN0000        00000100400101                   1CHECK ACCT                   Z
03460000000355377271000385642   000 3301511                000000005000000000005000000000005000000000005000000000005000000000005000            0225                                                                                                                                                                                                       008800000000000050000000000050000000000050000000000050000000000050      ATM             0140000000000000000000000000000000005000000000005000000000005000000000005000000000005000    000000005000000000005000        POS             00280010NN0000        00000100400101                   1CHECK ACCT                   Z
03460000000365377271000052739   000 3301511                000000005000000000005000000000005000000000005000000000005000000000005000            0225                                                                                                                                                                                                       008800000000000050000000000050000000000050000000000050000000000050      ATM             0140000000000000000000000000000000005000000000005000000000005000000000005000000000005000    000000005000000000005000        POS             00280010NN0000        00000100400101                   1CHECK ACCT                   Z
03460000000375377271000966854   000 3301511                000000005000000000005000000000005000000000005000000000005000000000005000            0225                                                                                                                                                                                                       008800000000000050000000000050000000000050000000000050000000000050      ATM             0140000000000000000000000000000000005000000000005000000000005000000000005000000000005000    000000005000000000005000        POS             00280010NN0000        00000100400101                   1CHECK ACCT                   Z
03460000000385377271000123225   000 3301511                000000005000000000005000000000005000000000005000000000005000000000005000            0225                                                                                                                                                                                                       008800000000000050000000000050000000000050000000000050000000000050      ATM             0140000000000000000000000000000000005000000000005000000000005000000000005000000000005000    000000005000000000005000        POS             00280010NN0000        00000100400101                   1CHECK ACCT                   Z
03460000000395377271000884743   000 3301511                000000005000000000005000000000005000000000005000000000005000000000005000            0225                                                                                                                                                                                                       008800000000000050000000000050000000000050000000000050000000000050      ATM             0140000000000000000000000000000000005000000000005000000000005000000000005000000000005000    000000005000000000005000        POS             00280010NN0000        00000100400101                   1CHECK ACCT                   Z
03460000000405377271000423815   000 3301511                000000005000000000005000000000005000000000005000000000005000000000005000            0225                                                                                                                                                                                                       008800000000000050000000000050000000000050000000000050000000000050      ATM             0140000000000000000000000000000000005000000000005000000000005000000000005000000000005000    000000005000000000005000        POS             00280010NN0000        00000100400101                   1CHECK ACCT                   Z
03460000000415377271000057373   000 3301511                000000005000000000005000000000005000000000005000000000005000000000005000            0225                                                                                                                                                                                                       008800000000000050000000000050000000000050000000000050000000000050      ATM             0140000000000000000000000000000000005000000000005000000000005000000000005000000000005000    000000005000000000005000        POS             00280010NN0000        00000100400101                   1CHECK ACCT                   Z
03460000000425377271000731597   000 3301511                000000005000000000005000000000005000000000005000000000005000000000005000            0225                                                                                                                                                                                                       008800000000000050000000000050000000000050000000000050000000000050      ATM             0140000000000000000000000000000000005000000000005000000000005000000000005000000000005000    000000005000000000005000        POS             00280010NN0000        00000100400101                   1CHECK ACCT                   Z
03460000000435377271000854589   000 3301511                000000005000000000005000000000005000000000005000000000005000000000005000            0225                                                                                                                                                                                                       008800000000000050000000000050000000000050000000000050000000000050      ATM             0140000000000000000000000000000000005000000000005000000000005000000000005000000000005000    000000005000000000005000        POS             00280010NN0000        00000100400101                   1CHECK ACCT                   Z
03460000000445377271000419938   000 3301511                000000005000000000005000000000005000000000005000000000005000000000005000            0225                                                                                                                                                                                                       008800000000000050000000000050000000000050000000000050000000000050      ATM             0140000000000000000000000000000000005000000000005000000000005000000000005000000000005000    000000005000000000005000        POS             00280010NN0000        00000100400101                   1CHECK ACCT                   Z
03460000000455377271000318742   000 3301511                000000005000000000005000000000005000000000005000000000005000000000005000            0225                                                                                                                                                                                                       008800000000000050000000000050000000000050000000000050000000000050      ATM             0140000000000000000000000000000000005000000000005000000000005000000000005000000000005000    000000005000000000005000        POS             00280010NN0000        00000100400101                   1CHECK ACCT                   Z
03460000000465377271000234303   000 3301511                000000005000000000005000000000005000000000005000000000005000000000005000            0225                                                                                                                                                                                                       008800000000000050000000000050000000000050000000000050000000000050      ATM             0140000000000000000000000000000000005000000000005000000000005000000000005000000000005000    000000005000000000005000        POS             00280010NN0000        00000100400101                   1CHECK ACCT                   Z
03460000000475377271000288051   000 3301511                000000005000000000005000000000005000000000005000000000005000000000005000            0225                                                                                                                                                                                                       008800000000000050000000000050000000000050000000000050000000000050      ATM             0140000000000000000000000000000000005000000000005000000000005000000000005000000000005000    000000005000000000005000        POS             00280010NN0000        00000100400101                   1CHECK ACCT                   Z
03460000000485377271000606708   000 3301511                000000005000000000005000000000005000000000005000000000005000000000005000            0225                                                                                                                                                                                                       008800000000000050000000000050000000000050000000000050000000000050      ATM             0140000000000000000000000000000000005000000000005000000000005000000000005000000000005000    000000005000000000005000        POS             00280010NN0000        00000100400101                   1CHECK ACCT                   Z
000000051BT000000000000000000000000048                                                                                                                                                                                                                                                                                                                                                                                                                                                                                                                                                                                                                                             Z
000000052FT0000000480                                                                                                                                                                                                                                                                                                                                                                                                                                                                                                                                                                                                                                                              Z
