000000001FH1CF0151202402091550PRO260  2402092024020915504015000024020920240209155040150000                          100                                                                                                                                                                                                                                                                                                                                                                                                                                                                                                                                                            Z
000000002BH0151                                                                                                                                                                                                                                                                                                                                                                                                                                                                                                                                                                                                                                                                    Z
03460000000035377274400072471   000 8201511                000000005000000000005000000000005000000000005000000000005000000000005000            2502                                                                                                                                                                                                       008800250000000050000000000050000000000050000000000050000000000000000000ATM             01400000000000000000000000050000000050000000000050000000000050000000000050000000000050000025000000005000000000005000        POS             00280010NN0000        000001004001015377274400072471   1CHECK ACCT                   Z
03460000000045377271000778465   000 3301511                000000003000000000003000000000003000000000003000000000003000000000003000            2502                                                                                                                                                                                                       008800250000000030000000000030000000000030000000000030000000000000000000ATM             01400000000000000000000000030000000030000000000030000000000030000000000030000000000030000025000000003000000000003000        POS             00280010NN0000        000001004001015377271000778465   1CHECK ACCT                   Z
03460000000055377271000654948   000 3301511                000000003000000000003000000000003000000000003000000000003000000000003000            2502                                                                                                                                                                                                       008800250000000030000000000030000000000030000000000030000000000000000000ATM             01400000000000000000000000030000000030000000000030000000000030000000000030000000000030000025000000003000000000003000        POS             00280010NN0000        000001004001015377271000654948   1CHECK ACCT                   Z
03460000000065377271000971441   000 3301511                000000003000000000003000000000003000000000003000000000003000000000003000            2502                                                                                                                                                                                                       008800250000000030000000000030000000000030000000000030000000000000000000ATM             01400000000000000000000000030000000030000000000030000000000030000000000030000000000030000025000000003000000000003000        POS             00280010NN0000        000001004001015377271000971441   1CHECK ACCT                   Z
03460000000075377271000486770   000 3301511                000000003000000000003000000000003000000000003000000000003000000000003000            2502                                                                                                                                                                                                       008800250000000030000000000030000000000030000000000030000000000000000000ATM             01400000000000000000000000030000000030000000000030000000000030000000000030000000000030000025000000003000000000003000        POS             00280010NN0000        000001004001015377271000486770   1CHECK ACCT                   Z
03460000000085377271000704677   000 3301511                000000003000000000003000000000003000000000003000000000003000000000003000            2502                                                                                                                                                                                                       008800250000000030000000000030000000000030000000000030000000000000000000ATM             01400000000000000000000000030000000030000000000030000000000030000000000030000000000030000025000000003000000000003000        POS             00280010NN0000        000001004001015377271000704677   1CHECK ACCT                   Z
03460000000095377271000322520   000 3301511                000000003000000000003000000000003000000000003000000000003000000000003000            2502                                                                                                                                                                                                       008800250000000030000000000030000000000030000000000030000000000000000000ATM             01400000000000000000000000030000000030000000000030000000000030000000000030000000000030000025000000003000000000003000        POS             00280010NN0000        000001004001015377271000322520   1CHECK ACCT                   Z
03460000000105377271000151879   000 3301511                000000003000000000003000000000003000000000003000000000003000000000003000            2502                                                                                                                                                                                                       008800250000000030000000000030000000000030000000000030000000000000000000ATM             01400000000000000000000000030000000030000000000030000000000030000000000030000000000030000025000000003000000000003000        POS             00280010NN0000        000001004001015377271000151879   1CHECK ACCT                   Z
03460000000115377271000951252   000 3301511                000000003000000000003000000000003000000000003000000000003000000000003000            2502                                                                                                                                                                                                       008800250000000030000000000030000000000030000000000030000000000000000000ATM             01400000000000000000000000030000000030000000000030000000000030000000000030000000000030000025000000003000000000003000        POS             00280010NN0000        000001004001015377271000951252   1CHECK ACCT                   Z
03460000000125377271000023649   000 3301511                000000003000000000003000000000003000000000003000000000003000000000003000            2502                                                                                                                                                                                                       008800250000000030000000000030000000000030000000000030000000000000000000ATM             01400000000000000000000000030000000030000000000030000000000030000000000030000000000030000025000000003000000000003000        POS             00280010NN0000        000001004001015377271000023649   1CHECK ACCT                   Z
03460000000135377271000449836   000 3301511                000000003000000000003000000000003000000000003000000000003000000000003000            2502                                                                                                                                                                                                       008800250000000030000000000030000000000030000000000030000000000000000000ATM             01400000000000000000000000030000000030000000000030000000000030000000000030000000000030000025000000003000000000003000        POS             00280010NN0000        000001004001015377271000449836   1CHECK ACCT                   Z
03460000000145377271000769266   000 3301511                000000003000000000003000000000003000000000003000000000003000000000003000            2502                                                                                                                                                                                                       008800250000000030000000000030000000000030000000000030000000000000000000ATM             01400000000000000000000000030000000030000000000030000000000030000000000030000000000030000025000000003000000000003000        POS             00280010NN0000        000001004001015377271000769266   1CHECK ACCT                   Z
03460000000155377271000350364   000 3301511                000000003000000000003000000000003000000000003000000000003000000000003000            2502                                                                                                                                                                                                       008800250000000030000000000030000000000030000000000030000000000000000000ATM             01400000000000000000000000030000000030000000000030000000000030000000000030000000000030000025000000003000000000003000        POS             00280010NN0000        000001004001015377271000350364   1CHECK ACCT                   Z
03460000000165377271000277013   000 3301511                000000003000000000003000000000003000000000003000000000003000000000003000            2502                                                                                                                                                                                                       008800250000000030000000000030000000000030000000000030000000000000000000ATM             01400000000000000000000000030000000030000000000030000000000030000000000030000000000030000025000000003000000000003000        POS             00280010NN0000        000001004001015377271000277013   1CHECK ACCT                   Z
03460000000175377271000111105   000 3301511                000000003000000000003000000000003000000000003000000000003000000000003000            2502                                                                                                                                                                                                       008800250000000030000000000030000000000030000000000030000000000000000000ATM             01400000000000000000000000030000000030000000000030000000000030000000000030000000000030000025000000003000000000003000        POS             00280010NN0000        000001004001015377271000111105   1CHECK ACCT                   Z
03460000000185377271000022815   000 3301511                000000003000000000003000000000003000000000003000000000003000000000003000            2502                                                                                                                                                                                                       008800250000000030000000000030000000000030000000000030000000000000000000ATM             01400000000000000000000000030000000030000000000030000000000030000000000030000000000030000025000000003000000000003000        POS             00280010NN0000        000001004001015377271000022815   1CHECK ACCT                   Z
03460000000195377271000623257   000 3301511                000000003000000000003000000000003000000000003000000000003000000000003000            2502                                                                                                                                                                                                       008800250000000030000000000030000000000030000000000030000000000000000000ATM             01400000000000000000000000030000000030000000000030000000000030000000000030000000000030000025000000003000000000003000        POS             00280010NN0000        000001004001015377271000623257   1CHECK ACCT                   Z
03460000000205377271000811852   000 3301511                000000003000000000003000000000003000000000003000000000003000000000003000            2502                                                                                                                                                                                                       008800250000000030000000000030000000000030000000000030000000000000000000ATM             01400000000000000000000000030000000030000000000030000000000030000000000030000000000030000025000000003000000000003000        POS             00280010NN0000        000001004001015377271000811852   1CHECK ACCT                   Z
03460000000215377271000279985   000 3301511                000000003000000000003000000000003000000000003000000000003000000000003000            2502                                                                                                                                                                                                       008800250000000030000000000030000000000030000000000030000000000000000000ATM             01400000000000000000000000030000000030000000000030000000000030000000000030000000000030000025000000003000000000003000        POS             00280010NN0000        000001004001015377271000279985   1CHECK ACCT                   Z
03460000000225377271000007527   000 3301511                000000003000000000003000000000003000000000003000000000003000000000003000            2502                                                                                                                                                                                                       008800250000000030000000000030000000000030000000000030000000000000000000ATM             01400000000000000000000000030000000030000000000030000000000030000000000030000000000030000025000000003000000000003000        POS             00280010NN0000        000001004001015377271000007527   1CHECK ACCT                   Z
03460000000235377271000587122   000 3301511                000000003000000000003000000000003000000000003000000000003000000000003000            2502                                                                                                                                                                                                       008800250000000030000000000030000000000030000000000030000000000000000000ATM             01400000000000000000000000030000000030000000000030000000000030000000000030000000000030000025000000003000000000003000        POS             00280010NN0000        000001004001015377271000587122   1CHECK ACCT                   Z
03460000000245377271000961160   000 3301511                000000003000000000003000000000003000000000003000000000003000000000003000            2502                                                                                                                                                                                                       008800250000000030000000000030000000000030000000000030000000000000000000ATM             01400000000000000000000000030000000030000000000030000000000030000000000030000000000030000025000000003000000000003000        POS             00280010NN0000        000001004001015377271000961160   1CHECK ACCT                   Z
000000025BT000000000000000000000000022                                                                                                                                                                                                                                                                                                                                                                                                                                                                                                                                                                                                                                             Z
000000026FT0000000220                                                                                                                                                                                                                                                                                                                                                                                                                                                                                                                                                                                                                                                              Z
