000000001FH1CF    202402071013PRO260  2402072024020710135247000024020720240207101352470000                          100                                                                                                                                                                                                                                                                                                                                                                                                                                                                                                                                                            Z
000000002BH0151                                                                                                                                                                                                                                                                                                                                                                                                                                                                                                                                                                                                                                                                    Z
0346000000001537727440068518    000 820151C                000000005000000000005000000000005000000000005000000000005000000000005000            2502                                                                                                                                                                                                       008800250000000050000000000050000000000050000000000050000000000000000000ATM             01400000000000000000000000050000000050000000000050000000000050000000000050000000000050000025000000005000000000005000        POS             00280010NN0000        000001004001015377274400072471   1CHECK ACCT                   Z
03460000000025377274400072471   000 820151C                000000005000000000005000000000005000000000005000000000005000000000005000            2502                                                                                                                                                                                                       008800250000000050000000000050000000000050000000000050000000000000000000ATM             01400000000000000000000000050000000050000000000050000000000050000000000050000000000050000025000000005000000000005000        POS             00280010NN0000        000001004001015377274400072471   1CHECK ACCT                   Z
03460000000035377274400543596   000 820151C                000000005000000000005000000000005000000000005000000000005000000000005000            2502                                                                                                                                                                                                       008800250000000050000000000050000000000050000000000050000000000000000000ATM             01400000000000000000000000050000000050000000000050000000000050000000000050000000000050000025000000005000000000005000        POS             00280010NN0000        000001004001015377274400543596   1CHECK ACCT                   Z
03460000000045377274400862202   000 820151C                000000005000000000005000000000005000000000005000000000005000000000005000            2502                                                                                                                                                                                                       008800250000000050000000000050000000000050000000000050000000000000000000ATM             01400000000000000000000000050000000050000000000050000000000050000000000050000000000050000025000000005000000000005000        POS             00280010NN0000        000001004001015377274400862202   1CHECK ACCT                   Z
03460000000055377274400843624   000 820151C                000000005000000000005000000000005000000000005000000000005000000000005000            2502                                                                                                                                                                                                       008800250000000050000000000050000000000050000000000050000000000000000000ATM             01400000000000000000000000050000000050000000000050000000000050000000000050000000000050000025000000005000000000005000        POS             00280010NN0000        000001004001015377274400843624   1CHECK ACCT                   Z
03460000000065377274400941170   000 820151C                000000005000000000005000000000005000000000005000000000005000000000005000            2502                                                                                                                                                                                                       008800250000000050000000000050000000000050000000000050000000000000000000ATM             01400000000000000000000000050000000050000000000050000000000050000000000050000000000050000025000000005000000000005000        POS             00280010NN0000        000001004001015377274400941170   1CHECK ACCT                   Z
03460000000075377271000402702   000 330151C                000000003000000000003000000000003000000000003000000000003000000000003000            2502                                                                                                                                                                                                       008800250000000030000000000030000000000030000000000030000000000000000000ATM             01400000000000000000000000030000000030000000000030000000000030000000000030000000000030000025000000003000000000003000        POS             00280010NN0000        000001004001015377271000402702   1CHECK ACCT                   Z
03460000000085377271000089509   000 330151C                000000003000000000003000000000003000000000003000000000003000000000003000            2502                                                                                                                                                                                                       008800250000000030000000000030000000000030000000000030000000000000000000ATM             01400000000000000000000000030000000030000000000030000000000030000000000030000000000030000025000000003000000000003000        POS             00280010NN0000        000001004001015377271000089509   1CHECK ACCT                   Z
03460000000095377271000600503   000 330151C                000000003000000000003000000000003000000000003000000000003000000000003000            2502                                                                                                                                                                                                       008800250000000030000000000030000000000030000000000030000000000000000000ATM             01400000000000000000000000030000000030000000000030000000000030000000000030000000000030000025000000003000000000003000        POS             00280010NN0000        000001004001015377271000600503   1CHECK ACCT                   Z
000000012BT000000000000000000000000009                                                                                                                                                                                                                                                                                                                                                                                                                                                                                                                                                                                                                                             Z
000000013FT0000000090                                                                                                                                                                                                                                                                                                                                                                                                                                                                                                                                                                                                                                                              Z
