000000001FH1CF    202402070853PRO260  2402072024020708534142000024020720240207085341420000                          100                                                                                                                                                                                                                                                                                                                                                                                                                                                                                                                                                            Z
000000002BH0151                                                                                                                                                                                                                                                                                                                                                                                                                                                                                                                                                                                                                                                                    Z
03460000000015377274400072471   000 8201511                000000005000000000005000000000005000000000005000000000005000000000005000            2502                                                                                                                                                                                                       008800250000000050000000000050000000000050000000000050000000000000000000ATM             01400000000000000000000000050000000050000000000050000000000050000000000050000000000050000025000000005000000000005000        POS             00280010NN0000        00000100400101                   1CHECK ACCT                   Z
03460000000025377274400543596   000 8201511                000000005000000000005000000000005000000000005000000000005000000000005000            2502                                                                                                                                                                                                       008800250000000050000000000050000000000050000000000050000000000000000000ATM             01400000000000000000000000050000000050000000000050000000000050000000000050000000000050000025000000005000000000005000        POS             00280010NN0000        00000100400101                   1CHECK ACCT                   Z
03460000000035377274400862202   000 8201511                000000005000000000005000000000005000000000005000000000005000000000005000            2502                                                                                                                                                                                                       008800250000000050000000000050000000000050000000000050000000000000000000ATM             01400000000000000000000000050000000050000000000050000000000050000000000050000000000050000025000000005000000000005000        POS             00280010NN0000        00000100400101                   1CHECK ACCT                   Z
03460000000045377274400843624   000 8201511                000000005000000000005000000000005000000000005000000000005000000000005000            2502                                                                                                                                                                                                       008800250000000050000000000050000000000050000000000050000000000000000000ATM             01400000000000000000000000050000000050000000000050000000000050000000000050000000000050000025000000005000000000005000        POS             00280010NN0000        00000100400101                   1CHECK ACCT                   Z
000000007BT000000000000000000000000004                                                                                                                                                                                                                                                                                                                                                                                                                                                                                                                                                                                                                                             Z
000000008FT0000000040                                                                                                                                                                                                                                                                                                                                                                                                                                                                                                                                                                                                                                                              Z
