000000001FH1CF0151202402261521PRO260  2402262024022615212995000024022620240226152129950000                          100                                                                                                                                                                                                                                                                                                                                                                                                                                                                                                                                                            Z
000000002BH0151                                                                                                                                                                                                                                                                                                                                                                                                                                                                                                                                                                                                                                                                    Z
03460000000035377271000773979   000 3301511                000000003000000000003000000000003000000000003000000000003000000000003000            2502                                                                                                                                                                                                       008800250000000030000000000030000000000030000000000030000000000000000000ATM             01400000000000000000000000030000000030000000000030000000000030000000000030000000000030000025000000003000000000003000        POS             00280010NN0000        000001004001015377271000773979   1CHECK ACCT                   Z
03460000000045377271000837196   000 3301511                000000003000000000003000000000003000000000003000000000003000000000003000            2502                                                                                                                                                                                                       008800250000000030000000000030000000000030000000000030000000000000000000ATM             01400000000000000000000000030000000030000000000030000000000030000000000030000000000030000025000000003000000000003000        POS             00280010NN0000        000001004001015377271000837196   1CHECK ACCT                   Z
03460000000055377271000446345   000 3301511                000000003000000000003000000000003000000000003000000000003000000000003000            2502                                                                                                                                                                                                       008800250000000030000000000030000000000030000000000030000000000000000000ATM             01400000000000000000000000030000000030000000000030000000000030000000000030000000000030000025000000003000000000003000        POS             00280010NN0000        000001004001015377271000446345   1CHECK ACCT                   Z
03460000000065377271000102252   000 3301511                000000003000000000003000000000003000000000003000000000003000000000003000            2502                                                                                                                                                                                                       008800250000000030000000000030000000000030000000000030000000000000000000ATM             01400000000000000000000000030000000030000000000030000000000030000000000030000000000030000025000000003000000000003000        POS             00280010NN0000        000001004001015377271000102252   1CHECK ACCT                   Z
03460000000075377271000086877   000 3301511                000000003000000000003000000000003000000000003000000000003000000000003000            2502                                                                                                                                                                                                       008800250000000030000000000030000000000030000000000030000000000000000000ATM             01400000000000000000000000030000000030000000000030000000000030000000000030000000000030000025000000003000000000003000        POS             00280010NN0000        000001004001015377271000086877   1CHECK ACCT                   Z
03460000000085377271000952367   000 3301511                000000003000000000003000000000003000000000003000000000003000000000003000            2502                                                                                                                                                                                                       008800250000000030000000000030000000000030000000000030000000000000000000ATM             01400000000000000000000000030000000030000000000030000000000030000000000030000000000030000025000000003000000000003000        POS             00280010NN0000        000001004001015377271000952367   1CHECK ACCT                   Z
03460000000095377271000484718   000 3301511                000000003000000000003000000000003000000000003000000000003000000000003000            2502                                                                                                                                                                                                       008800250000000030000000000030000000000030000000000030000000000000000000ATM             01400000000000000000000000030000000030000000000030000000000030000000000030000000000030000025000000003000000000003000        POS             00280010NN0000        000001004001015377271000484718   1CHECK ACCT                   Z
03460000000105377271000875295   000 3301511                000000003000000000003000000000003000000000003000000000003000000000003000            2502                                                                                                                                                                                                       008800250000000030000000000030000000000030000000000030000000000000000000ATM             01400000000000000000000000030000000030000000000030000000000030000000000030000000000030000025000000003000000000003000        POS             00280010NN0000        000001004001015377271000875295   1CHECK ACCT                   Z
03460000000115377271000860636   000 3301511                000000003000000000003000000000003000000000003000000000003000000000003000            2502                                                                                                                                                                                                       008800250000000030000000000030000000000030000000000030000000000000000000ATM             01400000000000000000000000030000000030000000000030000000000030000000000030000000000030000025000000003000000000003000        POS             00280010NN0000        000001004001015377271000860636   1CHECK ACCT                   Z
03460000000125377271000208026   000 3301511                000000003000000000003000000000003000000000003000000000003000000000003000            2502                                                                                                                                                                                                       008800250000000030000000000030000000000030000000000030000000000000000000ATM             01400000000000000000000000030000000030000000000030000000000030000000000030000000000030000025000000003000000000003000        POS             00280010NN0000        000001004001015377271000208026   1CHECK ACCT                   Z
03460000000135377271000827098   000 3301511                000000003000000000003000000000003000000000003000000000003000000000003000            2502                                                                                                                                                                                                       008800250000000030000000000030000000000030000000000030000000000000000000ATM             01400000000000000000000000030000000030000000000030000000000030000000000030000000000030000025000000003000000000003000        POS             00280010NN0000        000001004001015377271000827098   1CHECK ACCT                   Z
03460000000145377271000195884   000 3301511                000000003000000000003000000000003000000000003000000000003000000000003000            2502                                                                                                                                                                                                       008800250000000030000000000030000000000030000000000030000000000000000000ATM             01400000000000000000000000030000000030000000000030000000000030000000000030000000000030000025000000003000000000003000        POS             00280010NN0000        000001004001015377271000195884   1CHECK ACCT                   Z
03460000000155377271000599325   000 3301511                000000003000000000003000000000003000000000003000000000003000000000003000            2502                                                                                                                                                                                                       008800250000000030000000000030000000000030000000000030000000000000000000ATM             01400000000000000000000000030000000030000000000030000000000030000000000030000000000030000025000000003000000000003000        POS             00280010NN0000        000001004001015377271000599325   1CHECK ACCT                   Z
03460000000165377271000601147   000 3301511                000000003000000000003000000000003000000000003000000000003000000000003000            2502                                                                                                                                                                                                       008800250000000030000000000030000000000030000000000030000000000000000000ATM             01400000000000000000000000030000000030000000000030000000000030000000000030000000000030000025000000003000000000003000        POS             00280010NN0000        000001004001015377271000601147   1CHECK ACCT                   Z
03460000000175377271000827536   000 3301511                000000003000000000003000000000003000000000003000000000003000000000003000            2502                                                                                                                                                                                                       008800250000000030000000000030000000000030000000000030000000000000000000ATM             01400000000000000000000000030000000030000000000030000000000030000000000030000000000030000025000000003000000000003000        POS             00280010NN0000        000001004001015377271000827536   1CHECK ACCT                   Z
03460000000185377271000062365   000 3301511                000000003000000000003000000000003000000000003000000000003000000000003000            2502                                                                                                                                                                                                       008800250000000030000000000030000000000030000000000030000000000000000000ATM             01400000000000000000000000030000000030000000000030000000000030000000000030000000000030000025000000003000000000003000        POS             00280010NN0000        000001004001015377271000062365   1CHECK ACCT                   Z
03460000000195377271000739996   000 3301511                000000003000000000003000000000003000000000003000000000003000000000003000            2502                                                                                                                                                                                                       008800250000000030000000000030000000000030000000000030000000000000000000ATM             01400000000000000000000000030000000030000000000030000000000030000000000030000000000030000025000000003000000000003000        POS             00280010NN0000        000001004001015377271000739996   1CHECK ACCT                   Z
03460000000205377271000136144   000 3301511                000000003000000000003000000000003000000000003000000000003000000000003000            2502                                                                                                                                                                                                       008800250000000030000000000030000000000030000000000030000000000000000000ATM             01400000000000000000000000030000000030000000000030000000000030000000000030000000000030000025000000003000000000003000        POS             00280010NN0000        000001004001015377271000136144   1CHECK ACCT                   Z
03460000000215377271000160839   000 3301511                000000003000000000003000000000003000000000003000000000003000000000003000            2502                                                                                                                                                                                                       008800250000000030000000000030000000000030000000000030000000000000000000ATM             01400000000000000000000000030000000030000000000030000000000030000000000030000000000030000025000000003000000000003000        POS             00280010NN0000        000001004001015377271000160839   1CHECK ACCT                   Z
03460000000225377271000657578   000 3301511                000000003000000000003000000000003000000000003000000000003000000000003000            2502                                                                                                                                                                                                       008800250000000030000000000030000000000030000000000030000000000000000000ATM             01400000000000000000000000030000000030000000000030000000000030000000000030000000000030000025000000003000000000003000        POS             00280010NN0000        000001004001015377271000657578   1CHECK ACCT                   Z
03460000000235377271000248105   000 3301511                000000003000000000003000000000003000000000003000000000003000000000003000            2502                                                                                                                                                                                                       008800250000000030000000000030000000000030000000000030000000000000000000ATM             01400000000000000000000000030000000030000000000030000000000030000000000030000000000030000025000000003000000000003000        POS             00280010NN0000        000001004001015377271000248105   1CHECK ACCT                   Z
03460000000245377271000334863   000 3301511                000000003000000000003000000000003000000000003000000000003000000000003000            2502                                                                                                                                                                                                       008800250000000030000000000030000000000030000000000030000000000000000000ATM             01400000000000000000000000030000000030000000000030000000000030000000000030000000000030000025000000003000000000003000        POS             00280010NN0000        000001004001015377271000334863   1CHECK ACCT                   Z
03460000000255377271000717026   000 3301511                000000003000000000003000000000003000000000003000000000003000000000003000            2502                                                                                                                                                                                                       008800250000000030000000000030000000000030000000000030000000000000000000ATM             01400000000000000000000000030000000030000000000030000000000030000000000030000000000030000025000000003000000000003000        POS             00280010NN0000        000001004001015377271000717026   1CHECK ACCT                   Z
03460000000265377271000465618   000 3301511                000000003000000000003000000000003000000000003000000000003000000000003000            2502                                                                                                                                                                                                       008800250000000030000000000030000000000030000000000030000000000000000000ATM             01400000000000000000000000030000000030000000000030000000000030000000000030000000000030000025000000003000000000003000        POS             00280010NN0000        000001004001015377271000465618   1CHECK ACCT                   Z
03460000000275377271000648866   000 3301511                000000003000000000003000000000003000000000003000000000003000000000003000            2502                                                                                                                                                                                                       008800250000000030000000000030000000000030000000000030000000000000000000ATM             01400000000000000000000000030000000030000000000030000000000030000000000030000000000030000025000000003000000000003000        POS             00280010NN0000        000001004001015377271000648866   1CHECK ACCT                   Z
03460000000285377271000997438   000 3301511                000000003000000000003000000000003000000000003000000000003000000000003000            2502                                                                                                                                                                                                       008800250000000030000000000030000000000030000000000030000000000000000000ATM             01400000000000000000000000030000000030000000000030000000000030000000000030000000000030000025000000003000000000003000        POS             00280010NN0000        000001004001015377271000997438   1CHECK ACCT                   Z
03460000000295377271000456856   000 3301511                000000003000000000003000000000003000000000003000000000003000000000003000            2502                                                                                                                                                                                                       008800250000000030000000000030000000000030000000000030000000000000000000ATM             01400000000000000000000000030000000030000000000030000000000030000000000030000000000030000025000000003000000000003000        POS             00280010NN0000        000001004001015377271000456856   1CHECK ACCT                   Z
03460000000305377271000914748   000 3301511                000000003000000000003000000000003000000000003000000000003000000000003000            2502                                                                                                                                                                                                       008800250000000030000000000030000000000030000000000030000000000000000000ATM             01400000000000000000000000030000000030000000000030000000000030000000000030000000000030000025000000003000000000003000        POS             00280010NN0000        000001004001015377271000914748   1CHECK ACCT                   Z
03460000000315377271000326968   000 3301511                000000003000000000003000000000003000000000003000000000003000000000003000            2502                                                                                                                                                                                                       008800250000000030000000000030000000000030000000000030000000000000000000ATM             01400000000000000000000000030000000030000000000030000000000030000000000030000000000030000025000000003000000000003000        POS             00280010NN0000        000001004001015377271000326968   1CHECK ACCT                   Z
03460000000325377271000919457   000 3301511                000000003000000000003000000000003000000000003000000000003000000000003000            2502                                                                                                                                                                                                       008800250000000030000000000030000000000030000000000030000000000000000000ATM             01400000000000000000000000030000000030000000000030000000000030000000000030000000000030000025000000003000000000003000        POS             00280010NN0000        000001004001015377271000919457   1CHECK ACCT                   Z
03460000000335377271000471806   000 3301511                000000003000000000003000000000003000000000003000000000003000000000003000            2502                                                                                                                                                                                                       008800250000000030000000000030000000000030000000000030000000000000000000ATM             01400000000000000000000000030000000030000000000030000000000030000000000030000000000030000025000000003000000000003000        POS             00280010NN0000        000001004001015377271000471806   1CHECK ACCT                   Z
03460000000345377271000166315   000 3301511                000000003000000000003000000000003000000000003000000000003000000000003000            2502                                                                                                                                                                                                       008800250000000030000000000030000000000030000000000030000000000000000000ATM             01400000000000000000000000030000000030000000000030000000000030000000000030000000000030000025000000003000000000003000        POS             00280010NN0000        000001004001015377271000166315   1CHECK ACCT                   Z
03460000000355377271000648171   000 3301511                000000003000000000003000000000003000000000003000000000003000000000003000            2502                                                                                                                                                                                                       008800250000000030000000000030000000000030000000000030000000000000000000ATM             01400000000000000000000000030000000030000000000030000000000030000000000030000000000030000025000000003000000000003000        POS             00280010NN0000        000001004001015377271000648171   1CHECK ACCT                   Z
03460000000365377271000426867   000 3301511                000000003000000000003000000000003000000000003000000000003000000000003000            2502                                                                                                                                                                                                       008800250000000030000000000030000000000030000000000030000000000000000000ATM             01400000000000000000000000030000000030000000000030000000000030000000000030000000000030000025000000003000000000003000        POS             00280010NN0000        000001004001015377271000426867   1CHECK ACCT                   Z
03460000000375377271000438250   000 3301511                000000003000000000003000000000003000000000003000000000003000000000003000            2502                                                                                                                                                                                                       008800250000000030000000000030000000000030000000000030000000000000000000ATM             01400000000000000000000000030000000030000000000030000000000030000000000030000000000030000025000000003000000000003000        POS             00280010NN0000        000001004001015377271000438250   1CHECK ACCT                   Z
03460000000385377271000130030   000 3301511                000000003000000000003000000000003000000000003000000000003000000000003000            2502                                                                                                                                                                                                       008800250000000030000000000030000000000030000000000030000000000000000000ATM             01400000000000000000000000030000000030000000000030000000000030000000000030000000000030000025000000003000000000003000        POS             00280010NN0000        000001004001015377271000130030   1CHECK ACCT                   Z
03460000000395377271000241787   000 3301511                000000003000000000003000000000003000000000003000000000003000000000003000            2502                                                                                                                                                                                                       008800250000000030000000000030000000000030000000000030000000000000000000ATM             01400000000000000000000000030000000030000000000030000000000030000000000030000000000030000025000000003000000000003000        POS             00280010NN0000        000001004001015377271000241787   1CHECK ACCT                   Z
03460000000405377271000423088   000 3301511                000000003000000000003000000000003000000000003000000000003000000000003000            2502                                                                                                                                                                                                       008800250000000030000000000030000000000030000000000030000000000000000000ATM             01400000000000000000000000030000000030000000000030000000000030000000000030000000000030000025000000003000000000003000        POS             00280010NN0000        000001004001015377271000423088   1CHECK ACCT                   Z
03460000000415377271000708090   000 3301511                000000003000000000003000000000003000000000003000000000003000000000003000            2502                                                                                                                                                                                                       008800250000000030000000000030000000000030000000000030000000000000000000ATM             01400000000000000000000000030000000030000000000030000000000030000000000030000000000030000025000000003000000000003000        POS             00280010NN0000        000001004001015377271000708090   1CHECK ACCT                   Z
03460000000425377271000265240   000 3301511                000000003000000000003000000000003000000000003000000000003000000000003000            2502                                                                                                                                                                                                       008800250000000030000000000030000000000030000000000030000000000000000000ATM             01400000000000000000000000030000000030000000000030000000000030000000000030000000000030000025000000003000000000003000        POS             00280010NN0000        000001004001015377271000265240   1CHECK ACCT                   Z
03460000000435377271000964917   000 3301511                000000003000000000003000000000003000000000003000000000003000000000003000            2502                                                                                                                                                                                                       008800250000000030000000000030000000000030000000000030000000000000000000ATM             01400000000000000000000000030000000030000000000030000000000030000000000030000000000030000025000000003000000000003000        POS             00280010NN0000        000001004001015377271000964917   1CHECK ACCT                   Z
03460000000445377271000534975   000 3301511                000000003000000000003000000000003000000000003000000000003000000000003000            2502                                                                                                                                                                                                       008800250000000030000000000030000000000030000000000030000000000000000000ATM             01400000000000000000000000030000000030000000000030000000000030000000000030000000000030000025000000003000000000003000        POS             00280010NN0000        000001004001015377271000534975   1CHECK ACCT                   Z
03460000000455377271000531229   000 3301511                000000003000000000003000000000003000000000003000000000003000000000003000            2502                                                                                                                                                                                                       008800250000000030000000000030000000000030000000000030000000000000000000ATM             01400000000000000000000000030000000030000000000030000000000030000000000030000000000030000025000000003000000000003000        POS             00280010NN0000        000001004001015377271000531229   1CHECK ACCT                   Z
03460000000465377271000558842   000 3301511                000000003000000000003000000000003000000000003000000000003000000000003000            2502                                                                                                                                                                                                       008800250000000030000000000030000000000030000000000030000000000000000000ATM             01400000000000000000000000030000000030000000000030000000000030000000000030000000000030000025000000003000000000003000        POS             00280010NN0000        000001004001015377271000558842   1CHECK ACCT                   Z
03460000000475377271000073099   000 3301511                000000003000000000003000000000003000000000003000000000003000000000003000            2502                                                                                                                                                                                                       008800250000000030000000000030000000000030000000000030000000000000000000ATM             01400000000000000000000000030000000030000000000030000000000030000000000030000000000030000025000000003000000000003000        POS             00280010NN0000        000001004001015377271000073099   1CHECK ACCT                   Z
03460000000485377271000984626   000 3301511                000000003000000000003000000000003000000000003000000000003000000000003000            2502                                                                                                                                                                                                       008800250000000030000000000030000000000030000000000030000000000000000000ATM             01400000000000000000000000030000000030000000000030000000000030000000000030000000000030000025000000003000000000003000        POS             00280010NN0000        000001004001015377271000984626   1CHECK ACCT                   Z
03460000000495377271000436486   000 3301511                000000003000000000003000000000003000000000003000000000003000000000003000            2502                                                                                                                                                                                                       008800250000000030000000000030000000000030000000000030000000000000000000ATM             01400000000000000000000000030000000030000000000030000000000030000000000030000000000030000025000000003000000000003000        POS             00280010NN0000        000001004001015377271000436486   1CHECK ACCT                   Z
03460000000505377271000900408   000 3301511                000000003000000000003000000000003000000000003000000000003000000000003000            2502                                                                                                                                                                                                       008800250000000030000000000030000000000030000000000030000000000000000000ATM             01400000000000000000000000030000000030000000000030000000000030000000000030000000000030000025000000003000000000003000        POS             00280010NN0000        000001004001015377271000900408   1CHECK ACCT                   Z
03460000000515377271000025008   000 3301511                000000003000000000003000000000003000000000003000000000003000000000003000            2502                                                                                                                                                                                                       008800250000000030000000000030000000000030000000000030000000000000000000ATM             01400000000000000000000000030000000030000000000030000000000030000000000030000000000030000025000000003000000000003000        POS             00280010NN0000        000001004001015377271000025008   1CHECK ACCT                   Z
03460000000525377271000687971   000 3301511                000000003000000000003000000000003000000000003000000000003000000000003000            2502                                                                                                                                                                                                       008800250000000030000000000030000000000030000000000030000000000000000000ATM             01400000000000000000000000030000000030000000000030000000000030000000000030000000000030000025000000003000000000003000        POS             00280010NN0000        000001004001015377271000687971   1CHECK ACCT                   Z
03460000000535377271000018797   000 3301511                000000003000000000003000000000003000000000003000000000003000000000003000            2502                                                                                                                                                                                                       008800250000000030000000000030000000000030000000000030000000000000000000ATM             01400000000000000000000000030000000030000000000030000000000030000000000030000000000030000025000000003000000000003000        POS             00280010NN0000        000001004001015377271000018797   1CHECK ACCT                   Z
03460000000545377274400188970   000 8201511                000000005000000000005000000000005000000000005000000000005000000000005000            2502                                                                                                                                                                                                       008800250000000050000000000050000000000050000000000050000000000000000000ATM             01400000000000000000000000050000000050000000000050000000000050000000000050000000000050000025000000005000000000005000        POS             00280010NN0000        000001004001015377274400188970   1CHECK ACCT                   Z
03460000000555377271000950676   000 3301511                000000003000000000003000000000003000000000003000000000003000000000003000            2502                                                                                                                                                                                                       008800250000000030000000000030000000000030000000000030000000000000000000ATM             01400000000000000000000000030000000030000000000030000000000030000000000030000000000030000025000000003000000000003000        POS             00280010NN0000        000001004001015377271000950676   1CHECK ACCT                   Z
03460000000565377271000240805   000 3301511                000000003000000000003000000000003000000000003000000000003000000000003000            2502                                                                                                                                                                                                       008800250000000030000000000030000000000030000000000030000000000000000000ATM             01400000000000000000000000030000000030000000000030000000000030000000000030000000000030000025000000003000000000003000        POS             00280010NN0000        000001004001015377271000240805   1CHECK ACCT                   Z
03460000000575377271000718651   000 3301511                000000003000000000003000000000003000000000003000000000003000000000003000            2502                                                                                                                                                                                                       008800250000000030000000000030000000000030000000000030000000000000000000ATM             01400000000000000000000000030000000030000000000030000000000030000000000030000000000030000025000000003000000000003000        POS             00280010NN0000        000001004001015377271000718651   1CHECK ACCT                   Z
03460000000585377271000222225   000 3301511                000000003000000000003000000000003000000000003000000000003000000000003000            2502                                                                                                                                                                                                       008800250000000030000000000030000000000030000000000030000000000000000000ATM             01400000000000000000000000030000000030000000000030000000000030000000000030000000000030000025000000003000000000003000        POS             00280010NN0000        000001004001015377271000222225   1CHECK ACCT                   Z
03460000000595377271000781212   000 3301511                000000003000000000003000000000003000000000003000000000003000000000003000            2502                                                                                                                                                                                                       008800250000000030000000000030000000000030000000000030000000000000000000ATM             01400000000000000000000000030000000030000000000030000000000030000000000030000000000030000025000000003000000000003000        POS             00280010NN0000        000001004001015377271000781212   1CHECK ACCT                   Z
03460000000605377271000324468   000 3301511                000000003000000000003000000000003000000000003000000000003000000000003000            2502                                                                                                                                                                                                       008800250000000030000000000030000000000030000000000030000000000000000000ATM             01400000000000000000000000030000000030000000000030000000000030000000000030000000000030000025000000003000000000003000        POS             00280010NN0000        000001004001015377271000324468   1CHECK ACCT                   Z
03460000000615377271000465873   000 3301511                000000003000000000003000000000003000000000003000000000003000000000003000            2502                                                                                                                                                                                                       008800250000000030000000000030000000000030000000000030000000000000000000ATM             01400000000000000000000000030000000030000000000030000000000030000000000030000000000030000025000000003000000000003000        POS             00280010NN0000        000001004001015377271000465873   1CHECK ACCT                   Z
03460000000625377271000911439   000 3301511                000000003000000000003000000000003000000000003000000000003000000000003000            2502                                                                                                                                                                                                       008800250000000030000000000030000000000030000000000030000000000000000000ATM             01400000000000000000000000030000000030000000000030000000000030000000000030000000000030000025000000003000000000003000        POS             00280010NN0000        000001004001015377271000911439   1CHECK ACCT                   Z
03460000000635377271000844507   000 3301511                000000003000000000003000000000003000000000003000000000003000000000003000            2502                                                                                                                                                                                                       008800250000000030000000000030000000000030000000000030000000000000000000ATM             01400000000000000000000000030000000030000000000030000000000030000000000030000000000030000025000000003000000000003000        POS             00280010NN0000        000001004001015377271000844507   1CHECK ACCT                   Z
03460000000645377271000075516   000 3301511                000000003000000000003000000000003000000000003000000000003000000000003000            2502                                                                                                                                                                                                       008800250000000030000000000030000000000030000000000030000000000000000000ATM             01400000000000000000000000030000000030000000000030000000000030000000000030000000000030000025000000003000000000003000        POS             00280010NN0000        000001004001015377271000075516   1CHECK ACCT                   Z
03460000000655377271000801432   000 3301511                000000003000000000003000000000003000000000003000000000003000000000003000            2502                                                                                                                                                                                                       008800250000000030000000000030000000000030000000000030000000000000000000ATM             01400000000000000000000000030000000030000000000030000000000030000000000030000000000030000025000000003000000000003000        POS             00280010NN0000        000001004001015377271000801432   1CHECK ACCT                   Z
03460000000665377271000322207   000 3301511                000000003000000000003000000000003000000000003000000000003000000000003000            2502                                                                                                                                                                                                       008800250000000030000000000030000000000030000000000030000000000000000000ATM             01400000000000000000000000030000000030000000000030000000000030000000000030000000000030000025000000003000000000003000        POS             00280010NN0000        000001004001015377271000322207   1CHECK ACCT                   Z
03460000000675377271000165200   000 3301511                000000003000000000003000000000003000000000003000000000003000000000003000            2502                                                                                                                                                                                                       008800250000000030000000000030000000000030000000000030000000000000000000ATM             01400000000000000000000000030000000030000000000030000000000030000000000030000000000030000025000000003000000000003000        POS             00280010NN0000        000001004001015377271000165200   1CHECK ACCT                   Z
03460000000685377271000198797   000 3301511                000000003000000000003000000000003000000000003000000000003000000000003000            2502                                                                                                                                                                                                       008800250000000030000000000030000000000030000000000030000000000000000000ATM             01400000000000000000000000030000000030000000000030000000000030000000000030000000000030000025000000003000000000003000        POS             00280010NN0000        000001004001015377271000198797   1CHECK ACCT                   Z
03460000000695377271000351339   000 3301511                000000003000000000003000000000003000000000003000000000003000000000003000            2502                                                                                                                                                                                                       008800250000000030000000000030000000000030000000000030000000000000000000ATM             01400000000000000000000000030000000030000000000030000000000030000000000030000000000030000025000000003000000000003000        POS             00280010NN0000        000001004001015377271000351339   1CHECK ACCT                   Z
03460000000705377271000750555   000 3301511                000000003000000000003000000000003000000000003000000000003000000000003000            2502                                                                                                                                                                                                       008800250000000030000000000030000000000030000000000030000000000000000000ATM             01400000000000000000000000030000000030000000000030000000000030000000000030000000000030000025000000003000000000003000        POS             00280010NN0000        000001004001015377271000750555   1CHECK ACCT                   Z
03460000000715377271000894197   000 3301511                000000003000000000003000000000003000000000003000000000003000000000003000            2502                                                                                                                                                                                                       008800250000000030000000000030000000000030000000000030000000000000000000ATM             01400000000000000000000000030000000030000000000030000000000030000000000030000000000030000025000000003000000000003000        POS             00280010NN0000        000001004001015377271000894197   1CHECK ACCT                   Z
03460000000725377271000157835   000 3301511                000000003000000000003000000000003000000000003000000000003000000000003000            2502                                                                                                                                                                                                       008800250000000030000000000030000000000030000000000030000000000000000000ATM             01400000000000000000000000030000000030000000000030000000000030000000000030000000000030000025000000003000000000003000        POS             00280010NN0000        000001004001015377271000157835   1CHECK ACCT                   Z
03460000000735377271000533886   000 3301511                000000003000000000003000000000003000000000003000000000003000000000003000            2502                                                                                                                                                                                                       008800250000000030000000000030000000000030000000000030000000000000000000ATM             01400000000000000000000000030000000030000000000030000000000030000000000030000000000030000025000000003000000000003000        POS             00280010NN0000        000001004001015377271000533886   1CHECK ACCT                   Z
03460000000745377271000017518   000 3301511                000000003000000000003000000000003000000000003000000000003000000000003000            2502                                                                                                                                                                                                       008800250000000030000000000030000000000030000000000030000000000000000000ATM             01400000000000000000000000030000000030000000000030000000000030000000000030000000000030000025000000003000000000003000        POS             00280010NN0000        000001004001015377271000017518   1CHECK ACCT                   Z
03460000000755377271000926742   000 3301511                000000003000000000003000000000003000000000003000000000003000000000003000            2502                                                                                                                                                                                                       008800250000000030000000000030000000000030000000000030000000000000000000ATM             01400000000000000000000000030000000030000000000030000000000030000000000030000000000030000025000000003000000000003000        POS             00280010NN0000        000001004001015377271000926742   1CHECK ACCT                   Z
000000076BT000000000000000000000000073                                                                                                                                                                                                                                                                                                                                                                                                                                                                                                                                                                                                                                             Z
000000077FT0000000730                                                                                                                                                                                                                                                                                                                                                                                                                                                                                                                                                                                                                                                              Z
