000000001FH1CF0151202402141143PRO260  2402142024021411433102000024021420240214114331020000                          100                                                                                                                                                                                                                                                                                                                                                                                                                                                                                                                                                            Z
000000002BH0151                                                                                                                                                                                                                                                                                                                                                                                                                                                                                                                                                                                                                                                                    Z
03460000000035377271000618950   000 3301511                000000003000000000003000000000003000000000003000000000003000000000003000            2502                                                                                                                                                                                                       008800250000000030000000000030000000000030000000000030000000000000000000ATM             01400000000000000000000000030000000030000000000030000000000030000000000030000000000030000025000000003000000000003000        POS             00280010NN0000        000001004001015377271000618950   1CHECK ACCT                   Z
03460000000045377271000870981   000 3301511                000000003000000000003000000000003000000000003000000000003000000000003000            2502                                                                                                                                                                                                       008800250000000030000000000030000000000030000000000030000000000000000000ATM             01400000000000000000000000030000000030000000000030000000000030000000000030000000000030000025000000003000000000003000        POS             00280010NN0000        000001004001015377271000870981   1CHECK ACCT                   Z
03460000000055377271000437757   000 3301511                000000003000000000003000000000003000000000003000000000003000000000003000            2502                                                                                                                                                                                                       008800250000000030000000000030000000000030000000000030000000000000000000ATM             01400000000000000000000000030000000030000000000030000000000030000000000030000000000030000025000000003000000000003000        POS             00280010NN0000        000001004001015377271000437757   1CHECK ACCT                   Z
03460000000065377271000592932   000 3301511                000000003000000000003000000000003000000000003000000000003000000000003000            2502                                                                                                                                                                                                       008800250000000030000000000030000000000030000000000030000000000000000000ATM             01400000000000000000000000030000000030000000000030000000000030000000000030000000000030000025000000003000000000003000        POS             00280010NN0000        000001004001015377271000592932   1CHECK ACCT                   Z
03460000000075377271000349119   000 3301511                000000003000000000003000000000003000000000003000000000003000000000003000            2502                                                                                                                                                                                                       008800250000000030000000000030000000000030000000000030000000000000000000ATM             01400000000000000000000000030000000030000000000030000000000030000000000030000000000030000025000000003000000000003000        POS             00280010NN0000        000001004001015377271000349119   1CHECK ACCT                   Z
03460000000085377274400772203   000 8201511                000000005000000000005000000000005000000000005000000000005000000000005000            2502                                                                                                                                                                                                       008800250000000050000000000050000000000050000000000050000000000000000000ATM             01400000000000000000000000050000000050000000000050000000000050000000000050000000000050000025000000005000000000005000        POS             00280010NN0000        000001004001015377274400772203   1CHECK ACCT                   Z
03460000000095377271000356932   000 3301511                000000003000000000003000000000003000000000003000000000003000000000003000            2502                                                                                                                                                                                                       008800250000000030000000000030000000000030000000000030000000000000000000ATM             01400000000000000000000000030000000030000000000030000000000030000000000030000000000030000025000000003000000000003000        POS             00280010NN0000        000001004001015377271000356932   1CHECK ACCT                   Z
03460000000105377271000546722   000 3301511                000000003000000000003000000000003000000000003000000000003000000000003000            2502                                                                                                                                                                                                       008800250000000030000000000030000000000030000000000030000000000000000000ATM             01400000000000000000000000030000000030000000000030000000000030000000000030000000000030000025000000003000000000003000        POS             00280010NN0000        000001004001015377271000546722   1CHECK ACCT                   Z
03460000000115377274400062928   000 8201511                000000005000000000005000000000005000000000005000000000005000000000005000            2502                                                                                                                                                                                                       008800250000000050000000000050000000000050000000000050000000000000000000ATM             01400000000000000000000000050000000050000000000050000000000050000000000050000000000050000025000000005000000000005000        POS             00280010NN0000        000001004001015377274400062928   1CHECK ACCT                   Z
03460000000125377271000698713   000 3301511                000000003000000000003000000000003000000000003000000000003000000000003000            2502                                                                                                                                                                                                       008800250000000030000000000030000000000030000000000030000000000000000000ATM             01400000000000000000000000030000000030000000000030000000000030000000000030000000000030000025000000003000000000003000        POS             00280010NN0000        000001004001015377271000698713   1CHECK ACCT                   Z
03460000000135377271000546714   000 3301511                000000003000000000003000000000003000000000003000000000003000000000003000            2502                                                                                                                                                                                                       008800250000000030000000000030000000000030000000000030000000000000000000ATM             01400000000000000000000000030000000030000000000030000000000030000000000030000000000030000025000000003000000000003000        POS             00280010NN0000        000001004001015377271000546714   1CHECK ACCT                   Z
03460000000145377271000938036   000 3301511                000000003000000000003000000000003000000000003000000000003000000000003000            2502                                                                                                                                                                                                       008800250000000030000000000030000000000030000000000030000000000000000000ATM             01400000000000000000000000030000000030000000000030000000000030000000000030000000000030000025000000003000000000003000        POS             00280010NN0000        000001004001015377271000938036   1CHECK ACCT                   Z
03460000000155377271000891128   000 3301511                000000003000000000003000000000003000000000003000000000003000000000003000            2502                                                                                                                                                                                                       008800250000000030000000000030000000000030000000000030000000000000000000ATM             01400000000000000000000000030000000030000000000030000000000030000000000030000000000030000025000000003000000000003000        POS             00280010NN0000        000001004001015377271000891128   1CHECK ACCT                   Z
03460000000165377271000944356   000 3301511                000000003000000000003000000000003000000000003000000000003000000000003000            2502                                                                                                                                                                                                       008800250000000030000000000030000000000030000000000030000000000000000000ATM             01400000000000000000000000030000000030000000000030000000000030000000000030000000000030000025000000003000000000003000        POS             00280010NN0000        000001004001015377271000944356   1CHECK ACCT                   Z
03460000000175377274400693482   000 8201511                000000005000000000005000000000005000000000005000000000005000000000005000            2502                                                                                                                                                                                                       008800250000000050000000000050000000000050000000000050000000000000000000ATM             01400000000000000000000000050000000050000000000050000000000050000000000050000000000050000025000000005000000000005000        POS             00280010NN0000        000001004001015377274400693482   1CHECK ACCT                   Z
03460000000185377271000515487   000 3301511                000000003000000000003000000000003000000000003000000000003000000000003000            2502                                                                                                                                                                                                       008800250000000030000000000030000000000030000000000030000000000000000000ATM             01400000000000000000000000030000000030000000000030000000000030000000000030000000000030000025000000003000000000003000        POS             00280010NN0000        000001004001015377271000515487   1CHECK ACCT                   Z
03460000000195377271000648353   000 3301511                000000003000000000003000000000003000000000003000000000003000000000003000            2502                                                                                                                                                                                                       008800250000000030000000000030000000000030000000000030000000000000000000ATM             01400000000000000000000000030000000030000000000030000000000030000000000030000000000030000025000000003000000000003000        POS             00280010NN0000        000001004001015377271000648353   1CHECK ACCT                   Z
03460000000205377271000988627   000 3301511                000000003000000000003000000000003000000000003000000000003000000000003000            2502                                                                                                                                                                                                       008800250000000030000000000030000000000030000000000030000000000000000000ATM             01400000000000000000000000030000000030000000000030000000000030000000000030000000000030000025000000003000000000003000        POS             00280010NN0000        000001004001015377271000988627   1CHECK ACCT                   Z
03460000000215377271000029117   000 3301511                000000003000000000003000000000003000000000003000000000003000000000003000            2502                                                                                                                                                                                                       008800250000000030000000000030000000000030000000000030000000000000000000ATM             01400000000000000000000000030000000030000000000030000000000030000000000030000000000030000025000000003000000000003000        POS             00280010NN0000        000001004001015377271000029117   1CHECK ACCT                   Z
03460000000225377271000849845   000 3301511                000000003000000000003000000000003000000000003000000000003000000000003000            2502                                                                                                                                                                                                       008800250000000030000000000030000000000030000000000030000000000000000000ATM             01400000000000000000000000030000000030000000000030000000000030000000000030000000000030000025000000003000000000003000        POS             00280010NN0000        000001004001015377271000849845   1CHECK ACCT                   Z
03460000000235377271000648676   000 3301511                000000003000000000003000000000003000000000003000000000003000000000003000            2502                                                                                                                                                                                                       008800250000000030000000000030000000000030000000000030000000000000000000ATM             01400000000000000000000000030000000030000000000030000000000030000000000030000000000030000025000000003000000000003000        POS             00280010NN0000        000001004001015377271000648676   1CHECK ACCT                   Z
03460000000245377274400196189   000 8201511                000000005000000000005000000000005000000000005000000000005000000000005000            2502                                                                                                                                                                                                       008800250000000050000000000050000000000050000000000050000000000000000000ATM             01400000000000000000000000050000000050000000000050000000000050000000000050000000000050000025000000005000000000005000        POS             00280010NN0000        000001004001015377274400196189   1CHECK ACCT                   Z
03460000000255377271000164716   000 3301511                000000003000000000003000000000003000000000003000000000003000000000003000            2502                                                                                                                                                                                                       008800250000000030000000000030000000000030000000000030000000000000000000ATM             01400000000000000000000000030000000030000000000030000000000030000000000030000000000030000025000000003000000000003000        POS             00280010NN0000        000001004001015377271000164716   1CHECK ACCT                   Z
03460000000265377271000885997   000 3301511                000000003000000000003000000000003000000000003000000000003000000000003000            2502                                                                                                                                                                                                       008800250000000030000000000030000000000030000000000030000000000000000000ATM             01400000000000000000000000030000000030000000000030000000000030000000000030000000000030000025000000003000000000003000        POS             00280010NN0000        000001004001015377271000885997   1CHECK ACCT                   Z
03460000000275377271000202110   000 3301511                000000003000000000003000000000003000000000003000000000003000000000003000            2502                                                                                                                                                                                                       008800250000000030000000000030000000000030000000000030000000000000000000ATM             01400000000000000000000000030000000030000000000030000000000030000000000030000000000030000025000000003000000000003000        POS             00280010NN0000        000001004001015377271000202110   1CHECK ACCT                   Z
03460000000285377271000172768   000 3301511                000000003000000000003000000000003000000000003000000000003000000000003000            2502                                                                                                                                                                                                       008800250000000030000000000030000000000030000000000030000000000000000000ATM             01400000000000000000000000030000000030000000000030000000000030000000000030000000000030000025000000003000000000003000        POS             00280010NN0000        000001004001015377271000172768   1CHECK ACCT                   Z
03460000000295377271000611856   000 3301511                000000003000000000003000000000003000000000003000000000003000000000003000            2502                                                                                                                                                                                                       008800250000000030000000000030000000000030000000000030000000000000000000ATM             01400000000000000000000000030000000030000000000030000000000030000000000030000000000030000025000000003000000000003000        POS             00280010NN0000        000001004001015377271000611856   1CHECK ACCT                   Z
03460000000305377271000141755   000 3301511                000000003000000000003000000000003000000000003000000000003000000000003000            2502                                                                                                                                                                                                       008800250000000030000000000030000000000030000000000030000000000000000000ATM             01400000000000000000000000030000000030000000000030000000000030000000000030000000000030000025000000003000000000003000        POS             00280010NN0000        000001004001015377271000141755   1CHECK ACCT                   Z
03460000000315377271000177858   000 3301511                000000003000000000003000000000003000000000003000000000003000000000003000            2502                                                                                                                                                                                                       008800250000000030000000000030000000000030000000000030000000000000000000ATM             01400000000000000000000000030000000030000000000030000000000030000000000030000000000030000025000000003000000000003000        POS             00280010NN0000        000001004001015377271000177858   1CHECK ACCT                   Z
03460000000325377271000923525   000 3301511                000000003000000000003000000000003000000000003000000000003000000000003000            2502                                                                                                                                                                                                       008800250000000030000000000030000000000030000000000030000000000000000000ATM             01400000000000000000000000030000000030000000000030000000000030000000000030000000000030000025000000003000000000003000        POS             00280010NN0000        000001004001015377271000923525   1CHECK ACCT                   Z
03460000000335377271000910175   000 3301511                000000003000000000003000000000003000000000003000000000003000000000003000            2502                                                                                                                                                                                                       008800250000000030000000000030000000000030000000000030000000000000000000ATM             01400000000000000000000000030000000030000000000030000000000030000000000030000000000030000025000000003000000000003000        POS             00280010NN0000        000001004001015377271000910175   1CHECK ACCT                   Z
03460000000345377271000598459   000 3301511                000000003000000000003000000000003000000000003000000000003000000000003000            2502                                                                                                                                                                                                       008800250000000030000000000030000000000030000000000030000000000000000000ATM             01400000000000000000000000030000000030000000000030000000000030000000000030000000000030000025000000003000000000003000        POS             00280010NN0000        000001004001015377271000598459   1CHECK ACCT                   Z
03460000000355377271000803271   000 3301511                000000003000000000003000000000003000000000003000000000003000000000003000            2502                                                                                                                                                                                                       008800250000000030000000000030000000000030000000000030000000000000000000ATM             01400000000000000000000000030000000030000000000030000000000030000000000030000000000030000025000000003000000000003000        POS             00280010NN0000        000001004001015377271000803271   1CHECK ACCT                   Z
03460000000365377271000033390   000 3301511                000000003000000000003000000000003000000000003000000000003000000000003000            2502                                                                                                                                                                                                       008800250000000030000000000030000000000030000000000030000000000000000000ATM             01400000000000000000000000030000000030000000000030000000000030000000000030000000000030000025000000003000000000003000        POS             00280010NN0000        000001004001015377271000033390   1CHECK ACCT                   Z
03460000000375377271000370107   000 3301511                000000003000000000003000000000003000000000003000000000003000000000003000            2502                                                                                                                                                                                                       008800250000000030000000000030000000000030000000000030000000000000000000ATM             01400000000000000000000000030000000030000000000030000000000030000000000030000000000030000025000000003000000000003000        POS             00280010NN0000        000001004001015377271000370107   1CHECK ACCT                   Z
03460000000385377271000143918   000 3301511                000000003000000000003000000000003000000000003000000000003000000000003000            2502                                                                                                                                                                                                       008800250000000030000000000030000000000030000000000030000000000000000000ATM             01400000000000000000000000030000000030000000000030000000000030000000000030000000000030000025000000003000000000003000        POS             00280010NN0000        000001004001015377271000143918   1CHECK ACCT                   Z
03460000000395377271000045154   000 3301511                000000003000000000003000000000003000000000003000000000003000000000003000            2502                                                                                                                                                                                                       008800250000000030000000000030000000000030000000000030000000000000000000ATM             01400000000000000000000000030000000030000000000030000000000030000000000030000000000030000025000000003000000000003000        POS             00280010NN0000        000001004001015377271000045154   1CHECK ACCT                   Z
03460000000405377271000585597   000 3301511                000000003000000000003000000000003000000000003000000000003000000000003000            2502                                                                                                                                                                                                       008800250000000030000000000030000000000030000000000030000000000000000000ATM             01400000000000000000000000030000000030000000000030000000000030000000000030000000000030000025000000003000000000003000        POS             00280010NN0000        000001004001015377271000585597   1CHECK ACCT                   Z
03460000000415377271000811381   000 3301511                000000003000000000003000000000003000000000003000000000003000000000003000            2502                                                                                                                                                                                                       008800250000000030000000000030000000000030000000000030000000000000000000ATM             01400000000000000000000000030000000030000000000030000000000030000000000030000000000030000025000000003000000000003000        POS             00280010NN0000        000001004001015377271000811381   1CHECK ACCT                   Z
03460000000425377271000240987   000 3301511                000000003000000000003000000000003000000000003000000000003000000000003000            2502                                                                                                                                                                                                       008800250000000030000000000030000000000030000000000030000000000000000000ATM             01400000000000000000000000030000000030000000000030000000000030000000000030000000000030000025000000003000000000003000        POS             00280010NN0000        000001004001015377271000240987   1CHECK ACCT                   Z
03460000000435377271000214313   000 3301511                000000003000000000003000000000003000000000003000000000003000000000003000            2502                                                                                                                                                                                                       008800250000000030000000000030000000000030000000000030000000000000000000ATM             01400000000000000000000000030000000030000000000030000000000030000000000030000000000030000025000000003000000000003000        POS             00280010NN0000        000001004001015377271000214313   1CHECK ACCT                   Z
03460000000445377271000142563   000 3301511                000000003000000000003000000000003000000000003000000000003000000000003000            2502                                                                                                                                                                                                       008800250000000030000000000030000000000030000000000030000000000000000000ATM             01400000000000000000000000030000000030000000000030000000000030000000000030000000000030000025000000003000000000003000        POS             00280010NN0000        000001004001015377271000142563   1CHECK ACCT                   Z
03460000000455377271000878927   000 3301511                000000003000000000003000000000003000000000003000000000003000000000003000            2502                                                                                                                                                                                                       008800250000000030000000000030000000000030000000000030000000000000000000ATM             01400000000000000000000000030000000030000000000030000000000030000000000030000000000030000025000000003000000000003000        POS             00280010NN0000        000001004001015377271000878927   1CHECK ACCT                   Z
03460000000465377271000884180   000 3301511                000000003000000000003000000000003000000000003000000000003000000000003000            2502                                                                                                                                                                                                       008800250000000030000000000030000000000030000000000030000000000000000000ATM             01400000000000000000000000030000000030000000000030000000000030000000000030000000000030000025000000003000000000003000        POS             00280010NN0000        000001004001015377271000884180   1CHECK ACCT                   Z
03460000000475377271000326794   000 3301511                000000003000000000003000000000003000000000003000000000003000000000003000            2502                                                                                                                                                                                                       008800250000000030000000000030000000000030000000000030000000000000000000ATM             01400000000000000000000000030000000030000000000030000000000030000000000030000000000030000025000000003000000000003000        POS             00280010NN0000        000001004001015377271000326794   1CHECK ACCT                   Z
03460000000485377271000842550   000 3301511                000000003000000000003000000000003000000000003000000000003000000000003000            2502                                                                                                                                                                                                       008800250000000030000000000030000000000030000000000030000000000000000000ATM             01400000000000000000000000030000000030000000000030000000000030000000000030000000000030000025000000003000000000003000        POS             00280010NN0000        000001004001015377271000842550   1CHECK ACCT                   Z
03460000000495377271000964339   000 3301511                000000003000000000003000000000003000000000003000000000003000000000003000            2502                                                                                                                                                                                                       008800250000000030000000000030000000000030000000000030000000000000000000ATM             01400000000000000000000000030000000030000000000030000000000030000000000030000000000030000025000000003000000000003000        POS             00280010NN0000        000001004001015377271000964339   1CHECK ACCT                   Z
03460000000505377271000194275   000 3301511                000000003000000000003000000000003000000000003000000000003000000000003000            2502                                                                                                                                                                                                       008800250000000030000000000030000000000030000000000030000000000000000000ATM             01400000000000000000000000030000000030000000000030000000000030000000000030000000000030000025000000003000000000003000        POS             00280010NN0000        000001004001015377271000194275   1CHECK ACCT                   Z
03460000000515377271000813114   000 3301511                000000003000000000003000000000003000000000003000000000003000000000003000            2502                                                                                                                                                                                                       008800250000000030000000000030000000000030000000000030000000000000000000ATM             01400000000000000000000000030000000030000000000030000000000030000000000030000000000030000025000000003000000000003000        POS             00280010NN0000        000001004001015377271000813114   1CHECK ACCT                   Z
03460000000525377274400492703   000 8201511                000000005000000000005000000000005000000000005000000000005000000000005000            2502                                                                                                                                                                                                       008800250000000050000000000050000000000050000000000050000000000000000000ATM             01400000000000000000000000050000000050000000000050000000000050000000000050000000000050000025000000005000000000005000        POS             00280010NN0000        000001004001015377274400492703   1CHECK ACCT                   Z
03460000000535377271000033796   000 3301511                000000003000000000003000000000003000000000003000000000003000000000003000            2502                                                                                                                                                                                                       008800250000000030000000000030000000000030000000000030000000000000000000ATM             01400000000000000000000000030000000030000000000030000000000030000000000030000000000030000025000000003000000000003000        POS             00280010NN0000        000001004001015377271000033796   1CHECK ACCT                   Z
03460000000545377271000411794   000 3301511                000000003000000000003000000000003000000000003000000000003000000000003000            2502                                                                                                                                                                                                       008800250000000030000000000030000000000030000000000030000000000000000000ATM             01400000000000000000000000030000000030000000000030000000000030000000000030000000000030000025000000003000000000003000        POS             00280010NN0000        000001004001015377271000411794   1CHECK ACCT                   Z
03460000000555377271000366758   000 3301511                000000003000000000003000000000003000000000003000000000003000000000003000            2502                                                                                                                                                                                                       008800250000000030000000000030000000000030000000000030000000000000000000ATM             01400000000000000000000000030000000030000000000030000000000030000000000030000000000030000025000000003000000000003000        POS             00280010NN0000        000001004001015377271000366758   1CHECK ACCT                   Z
03460000000565377271000341413   000 3301511                000000003000000000003000000000003000000000003000000000003000000000003000            2502                                                                                                                                                                                                       008800250000000030000000000030000000000030000000000030000000000000000000ATM             01400000000000000000000000030000000030000000000030000000000030000000000030000000000030000025000000003000000000003000        POS             00280010NN0000        000001004001015377271000341413   1CHECK ACCT                   Z
03460000000575377271000817412   000 3301511                000000003000000000003000000000003000000000003000000000003000000000003000            2502                                                                                                                                                                                                       008800250000000030000000000030000000000030000000000030000000000000000000ATM             01400000000000000000000000030000000030000000000030000000000030000000000030000000000030000025000000003000000000003000        POS             00280010NN0000        000001004001015377271000817412   1CHECK ACCT                   Z
03460000000585377271000761362   000 3301511                000000003000000000003000000000003000000000003000000000003000000000003000            2502                                                                                                                                                                                                       008800250000000030000000000030000000000030000000000030000000000000000000ATM             01400000000000000000000000030000000030000000000030000000000030000000000030000000000030000025000000003000000000003000        POS             00280010NN0000        000001004001015377271000761362   1CHECK ACCT                   Z
03460000000595377271000542689   000 3301511                000000003000000000003000000000003000000000003000000000003000000000003000            2502                                                                                                                                                                                                       008800250000000030000000000030000000000030000000000030000000000000000000ATM             01400000000000000000000000030000000030000000000030000000000030000000000030000000000030000025000000003000000000003000        POS             00280010NN0000        000001004001015377271000542689   1CHECK ACCT                   Z
03460000000605377271000724675   000 3301511                000000003000000000003000000000003000000000003000000000003000000000003000            2502                                                                                                                                                                                                       008800250000000030000000000030000000000030000000000030000000000000000000ATM             01400000000000000000000000030000000030000000000030000000000030000000000030000000000030000025000000003000000000003000        POS             00280010NN0000        000001004001015377271000724675   1CHECK ACCT                   Z
03460000000615377271000930231   000 3301511                000000003000000000003000000000003000000000003000000000003000000000003000            2502                                                                                                                                                                                                       008800250000000030000000000030000000000030000000000030000000000000000000ATM             01400000000000000000000000030000000030000000000030000000000030000000000030000000000030000025000000003000000000003000        POS             00280010NN0000        000001004001015377271000930231   1CHECK ACCT                   Z
03460000000625377271000567793   000 3301511                000000003000000000003000000000003000000000003000000000003000000000003000            2502                                                                                                                                                                                                       008800250000000030000000000030000000000030000000000030000000000000000000ATM             01400000000000000000000000030000000030000000000030000000000030000000000030000000000030000025000000003000000000003000        POS             00280010NN0000        000001004001015377271000567793   1CHECK ACCT                   Z
03460000000635377271000772138   000 3301511                000000003000000000003000000000003000000000003000000000003000000000003000            2502                                                                                                                                                                                                       008800250000000030000000000030000000000030000000000030000000000000000000ATM             01400000000000000000000000030000000030000000000030000000000030000000000030000000000030000025000000003000000000003000        POS             00280010NN0000        000001004001015377271000772138   1CHECK ACCT                   Z
03460000000645377271000989138   000 3301511                000000003000000000003000000000003000000000003000000000003000000000003000            2502                                                                                                                                                                                                       008800250000000030000000000030000000000030000000000030000000000000000000ATM             01400000000000000000000000030000000030000000000030000000000030000000000030000000000030000025000000003000000000003000        POS             00280010NN0000        000001004001015377271000989138   1CHECK ACCT                   Z
03460000000655377271000754185   000 3301511                000000003000000000003000000000003000000000003000000000003000000000003000            2502                                                                                                                                                                                                       008800250000000030000000000030000000000030000000000030000000000000000000ATM             01400000000000000000000000030000000030000000000030000000000030000000000030000000000030000025000000003000000000003000        POS             00280010NN0000        000001004001015377271000754185   1CHECK ACCT                   Z
03460000000665377271000307562   000 3301511                000000003000000000003000000000003000000000003000000000003000000000003000            2502                                                                                                                                                                                                       008800250000000030000000000030000000000030000000000030000000000000000000ATM             01400000000000000000000000030000000030000000000030000000000030000000000030000000000030000025000000003000000000003000        POS             00280010NN0000        000001004001015377271000307562   1CHECK ACCT                   Z
03460000000675377271000110859   000 3301511                000000003000000000003000000000003000000000003000000000003000000000003000            2502                                                                                                                                                                                                       008800250000000030000000000030000000000030000000000030000000000000000000ATM             01400000000000000000000000030000000030000000000030000000000030000000000030000000000030000025000000003000000000003000        POS             00280010NN0000        000001004001015377271000110859   1CHECK ACCT                   Z
03460000000685377271000221631   000 3301511                000000003000000000003000000000003000000000003000000000003000000000003000            2502                                                                                                                                                                                                       008800250000000030000000000030000000000030000000000030000000000000000000ATM             01400000000000000000000000030000000030000000000030000000000030000000000030000000000030000025000000003000000000003000        POS             00280010NN0000        000001004001015377271000221631   1CHECK ACCT                   Z
03460000000695377271000392804   000 3301511                000000003000000000003000000000003000000000003000000000003000000000003000            2502                                                                                                                                                                                                       008800250000000030000000000030000000000030000000000030000000000000000000ATM             01400000000000000000000000030000000030000000000030000000000030000000000030000000000030000025000000003000000000003000        POS             00280010NN0000        000001004001015377271000392804   1CHECK ACCT                   Z
03460000000705377271000053604   000 3301511                000000003000000000003000000000003000000000003000000000003000000000003000            2502                                                                                                                                                                                                       008800250000000030000000000030000000000030000000000030000000000000000000ATM             01400000000000000000000000030000000030000000000030000000000030000000000030000000000030000025000000003000000000003000        POS             00280010NN0000        000001004001015377271000053604   1CHECK ACCT                   Z
03460000000715377271000683319   000 3301511                000000003000000000003000000000003000000000003000000000003000000000003000            2502                                                                                                                                                                                                       008800250000000030000000000030000000000030000000000030000000000000000000ATM             01400000000000000000000000030000000030000000000030000000000030000000000030000000000030000025000000003000000000003000        POS             00280010NN0000        000001004001015377271000683319   1CHECK ACCT                   Z
03460000000725377271000027400   000 3301511                000000003000000000003000000000003000000000003000000000003000000000003000            2502                                                                                                                                                                                                       008800250000000030000000000030000000000030000000000030000000000000000000ATM             01400000000000000000000000030000000030000000000030000000000030000000000030000000000030000025000000003000000000003000        POS             00280010NN0000        000001004001015377271000027400   1CHECK ACCT                   Z
03460000000735377271000046350   000 3301511                000000003000000000003000000000003000000000003000000000003000000000003000            2502                                                                                                                                                                                                       008800250000000030000000000030000000000030000000000030000000000000000000ATM             01400000000000000000000000030000000030000000000030000000000030000000000030000000000030000025000000003000000000003000        POS             00280010NN0000        000001004001015377271000046350   1CHECK ACCT                   Z
03460000000745377271000304791   000 3301511                000000003000000000003000000000003000000000003000000000003000000000003000            2502                                                                                                                                                                                                       008800250000000030000000000030000000000030000000000030000000000000000000ATM             01400000000000000000000000030000000030000000000030000000000030000000000030000000000030000025000000003000000000003000        POS             00280010NN0000        000001004001015377271000304791   1CHECK ACCT                   Z
03460000000755377271000634957   000 3301511                000000003000000000003000000000003000000000003000000000003000000000003000            2502                                                                                                                                                                                                       008800250000000030000000000030000000000030000000000030000000000000000000ATM             01400000000000000000000000030000000030000000000030000000000030000000000030000000000030000025000000003000000000003000        POS             00280010NN0000        000001004001015377271000634957   1CHECK ACCT                   Z
03460000000765377271000926700   000 3301511                000000003000000000003000000000003000000000003000000000003000000000003000            2502                                                                                                                                                                                                       008800250000000030000000000030000000000030000000000030000000000000000000ATM             01400000000000000000000000030000000030000000000030000000000030000000000030000000000030000025000000003000000000003000        POS             00280010NN0000        000001004001015377271000926700   1CHECK ACCT                   Z
03460000000775377271000357567   000 3301511                000000003000000000003000000000003000000000003000000000003000000000003000            2502                                                                                                                                                                                                       008800250000000030000000000030000000000030000000000030000000000000000000ATM             01400000000000000000000000030000000030000000000030000000000030000000000030000000000030000025000000003000000000003000        POS             00280010NN0000        000001004001015377271000357567   1CHECK ACCT                   Z
03460000000785377271000724485   000 3301511                000000003000000000003000000000003000000000003000000000003000000000003000            2502                                                                                                                                                                                                       008800250000000030000000000030000000000030000000000030000000000000000000ATM             01400000000000000000000000030000000030000000000030000000000030000000000030000000000030000025000000003000000000003000        POS             00280010NN0000        000001004001015377271000724485   1CHECK ACCT                   Z
03460000000795377271000784364   000 3301511                000000003000000000003000000000003000000000003000000000003000000000003000            2502                                                                                                                                                                                                       008800250000000030000000000030000000000030000000000030000000000000000000ATM             01400000000000000000000000030000000030000000000030000000000030000000000030000000000030000025000000003000000000003000        POS             00280010NN0000        000001004001015377271000784364   1CHECK ACCT                   Z
03460000000805377271000807207   000 3301511                000000003000000000003000000000003000000000003000000000003000000000003000            2502                                                                                                                                                                                                       008800250000000030000000000030000000000030000000000030000000000000000000ATM             01400000000000000000000000030000000030000000000030000000000030000000000030000000000030000025000000003000000000003000        POS             00280010NN0000        000001004001015377271000807207   1CHECK ACCT                   Z
03460000000815377271000451907   000 3301511                000000003000000000003000000000003000000000003000000000003000000000003000            2502                                                                                                                                                                                                       008800250000000030000000000030000000000030000000000030000000000000000000ATM             01400000000000000000000000030000000030000000000030000000000030000000000030000000000030000025000000003000000000003000        POS             00280010NN0000        000001004001015377271000451907   1CHECK ACCT                   Z
03460000000825377271000985664   000 3301511                000000003000000000003000000000003000000000003000000000003000000000003000            2502                                                                                                                                                                                                       008800250000000030000000000030000000000030000000000030000000000000000000ATM             01400000000000000000000000030000000030000000000030000000000030000000000030000000000030000025000000003000000000003000        POS             00280010NN0000        000001004001015377271000985664   1CHECK ACCT                   Z
03460000000835377271000793662   000 3301511                000000003000000000003000000000003000000000003000000000003000000000003000            2502                                                                                                                                                                                                       008800250000000030000000000030000000000030000000000030000000000000000000ATM             01400000000000000000000000030000000030000000000030000000000030000000000030000000000030000025000000003000000000003000        POS             00280010NN0000        000001004001015377271000793662   1CHECK ACCT                   Z
03460000000845377271000540949   000 3301511                000000003000000000003000000000003000000000003000000000003000000000003000            2502                                                                                                                                                                                                       008800250000000030000000000030000000000030000000000030000000000000000000ATM             01400000000000000000000000030000000030000000000030000000000030000000000030000000000030000025000000003000000000003000        POS             00280010NN0000        000001004001015377271000540949   1CHECK ACCT                   Z
03460000000855377271000197914   000 3301511                000000003000000000003000000000003000000000003000000000003000000000003000            2502                                                                                                                                                                                                       008800250000000030000000000030000000000030000000000030000000000000000000ATM             01400000000000000000000000030000000030000000000030000000000030000000000030000000000030000025000000003000000000003000        POS             00280010NN0000        000001004001015377271000197914   1CHECK ACCT                   Z
03460000000865377271000122292   000 3301511                000000003000000000003000000000003000000000003000000000003000000000003000            2502                                                                                                                                                                                                       008800250000000030000000000030000000000030000000000030000000000000000000ATM             01400000000000000000000000030000000030000000000030000000000030000000000030000000000030000025000000003000000000003000        POS             00280010NN0000        000001004001015377271000122292   1CHECK ACCT                   Z
03460000000875377271000499252   000 3301511                000000003000000000003000000000003000000000003000000000003000000000003000            2502                                                                                                                                                                                                       008800250000000030000000000030000000000030000000000030000000000000000000ATM             01400000000000000000000000030000000030000000000030000000000030000000000030000000000030000025000000003000000000003000        POS             00280010NN0000        000001004001015377271000499252   1CHECK ACCT                   Z
03460000000885377271000157397   000 3301511                000000003000000000003000000000003000000000003000000000003000000000003000            2502                                                                                                                                                                                                       008800250000000030000000000030000000000030000000000030000000000000000000ATM             01400000000000000000000000030000000030000000000030000000000030000000000030000000000030000025000000003000000000003000        POS             00280010NN0000        000001004001015377271000157397   1CHECK ACCT                   Z
03460000000895377271000354853   000 3301511                000000003000000000003000000000003000000000003000000000003000000000003000            2502                                                                                                                                                                                                       008800250000000030000000000030000000000030000000000030000000000000000000ATM             01400000000000000000000000030000000030000000000030000000000030000000000030000000000030000025000000003000000000003000        POS             00280010NN0000        000001004001015377271000354853   1CHECK ACCT                   Z
03460000000905377271000408279   000 3301511                000000003000000000003000000000003000000000003000000000003000000000003000            2502                                                                                                                                                                                                       008800250000000030000000000030000000000030000000000030000000000000000000ATM             01400000000000000000000000030000000030000000000030000000000030000000000030000000000030000025000000003000000000003000        POS             00280010NN0000        000001004001015377271000408279   1CHECK ACCT                   Z
03460000000915377271000264144   000 3301511                000000003000000000003000000000003000000000003000000000003000000000003000            2502                                                                                                                                                                                                       008800250000000030000000000030000000000030000000000030000000000000000000ATM             01400000000000000000000000030000000030000000000030000000000030000000000030000000000030000025000000003000000000003000        POS             00280010NN0000        000001004001015377271000264144   1CHECK ACCT                   Z
03460000000925377271000949389   000 3301511                000000003000000000003000000000003000000000003000000000003000000000003000            2502                                                                                                                                                                                                       008800250000000030000000000030000000000030000000000030000000000000000000ATM             01400000000000000000000000030000000030000000000030000000000030000000000030000000000030000025000000003000000000003000        POS             00280010NN0000        000001004001015377271000949389   1CHECK ACCT                   Z
03460000000935377271000655895   000 3301511                000000003000000000003000000000003000000000003000000000003000000000003000            2502                                                                                                                                                                                                       008800250000000030000000000030000000000030000000000030000000000000000000ATM             01400000000000000000000000030000000030000000000030000000000030000000000030000000000030000025000000003000000000003000        POS             00280010NN0000        000001004001015377271000655895   1CHECK ACCT                   Z
03460000000945377271000751561   000 3301511                000000003000000000003000000000003000000000003000000000003000000000003000            2502                                                                                                                                                                                                       008800250000000030000000000030000000000030000000000030000000000000000000ATM             01400000000000000000000000030000000030000000000030000000000030000000000030000000000030000025000000003000000000003000        POS             00280010NN0000        000001004001015377271000751561   1CHECK ACCT                   Z
03460000000955377271000375460   000 3301511                000000003000000000003000000000003000000000003000000000003000000000003000            2502                                                                                                                                                                                                       008800250000000030000000000030000000000030000000000030000000000000000000ATM             01400000000000000000000000030000000030000000000030000000000030000000000030000000000030000025000000003000000000003000        POS             00280010NN0000        000001004001015377271000375460   1CHECK ACCT                   Z
03460000000965377271000782400   000 3301511                000000003000000000003000000000003000000000003000000000003000000000003000            2502                                                                                                                                                                                                       008800250000000030000000000030000000000030000000000030000000000000000000ATM             01400000000000000000000000030000000030000000000030000000000030000000000030000000000030000025000000003000000000003000        POS             00280010NN0000        000001004001015377271000782400   1CHECK ACCT                   Z
03460000000975377271000808122   000 3301511                000000003000000000003000000000003000000000003000000000003000000000003000            2502                                                                                                                                                                                                       008800250000000030000000000030000000000030000000000030000000000000000000ATM             01400000000000000000000000030000000030000000000030000000000030000000000030000000000030000025000000003000000000003000        POS             00280010NN0000        000001004001015377271000808122   1CHECK ACCT                   Z
03460000000985377271000971862   000 3301511                000000003000000000003000000000003000000000003000000000003000000000003000            2502                                                                                                                                                                                                       008800250000000030000000000030000000000030000000000030000000000000000000ATM             01400000000000000000000000030000000030000000000030000000000030000000000030000000000030000025000000003000000000003000        POS             00280010NN0000        000001004001015377271000971862   1CHECK ACCT                   Z
03460000000995377271000911363   000 3301511                000000003000000000003000000000003000000000003000000000003000000000003000            2502                                                                                                                                                                                                       008800250000000030000000000030000000000030000000000030000000000000000000ATM             01400000000000000000000000030000000030000000000030000000000030000000000030000000000030000025000000003000000000003000        POS             00280010NN0000        000001004001015377271000911363   1CHECK ACCT                   Z
03460000001005377271000172669   000 3301511                000000003000000000003000000000003000000000003000000000003000000000003000            2502                                                                                                                                                                                                       008800250000000030000000000030000000000030000000000030000000000000000000ATM             01400000000000000000000000030000000030000000000030000000000030000000000030000000000030000025000000003000000000003000        POS             00280010NN0000        000001004001015377271000172669   1CHECK ACCT                   Z
03460000001015377271000479106   000 3301511                000000003000000000003000000000003000000000003000000000003000000000003000            2502                                                                                                                                                                                                       008800250000000030000000000030000000000030000000000030000000000000000000ATM             01400000000000000000000000030000000030000000000030000000000030000000000030000000000030000025000000003000000000003000        POS             00280010NN0000        000001004001015377271000479106   1CHECK ACCT                   Z
03460000001025377271000275413   000 3301511                000000003000000000003000000000003000000000003000000000003000000000003000            2502                                                                                                                                                                                                       008800250000000030000000000030000000000030000000000030000000000000000000ATM             01400000000000000000000000030000000030000000000030000000000030000000000030000000000030000025000000003000000000003000        POS             00280010NN0000        000001004001015377271000275413   1CHECK ACCT                   Z
03460000001035377271000634841   000 3301511                000000003000000000003000000000003000000000003000000000003000000000003000            2502                                                                                                                                                                                                       008800250000000030000000000030000000000030000000000030000000000000000000ATM             01400000000000000000000000030000000030000000000030000000000030000000000030000000000030000025000000003000000000003000        POS             00280010NN0000        000001004001015377271000634841   1CHECK ACCT                   Z
03460000001045377271000337957   000 3301511                000000003000000000003000000000003000000000003000000000003000000000003000            2502                                                                                                                                                                                                       008800250000000030000000000030000000000030000000000030000000000000000000ATM             01400000000000000000000000030000000030000000000030000000000030000000000030000000000030000025000000003000000000003000        POS             00280010NN0000        000001004001015377271000337957   1CHECK ACCT                   Z
03460000001055377271000190588   000 3301511                000000003000000000003000000000003000000000003000000000003000000000003000            2502                                                                                                                                                                                                       008800250000000030000000000030000000000030000000000030000000000000000000ATM             01400000000000000000000000030000000030000000000030000000000030000000000030000000000030000025000000003000000000003000        POS             00280010NN0000        000001004001015377271000190588   1CHECK ACCT                   Z
000000106BT000000000000000000000000103                                                                                                                                                                                                                                                                                                                                                                                                                                                                                                                                                                                                                                             Z
000000107FT0000001030                                                                                                                                                                                                                                                                                                                                                                                                                                                                                                                                                                                                                                                              Z
